:100000000C945D000C9487020C9460020C948500A3
:100010000C9485000C9485000C9485000C9485004C
:100020000C9485000C9485000C9485000C9485003C
:100030000C9485000C9485000C9485000C9485002C
:100040000C9416020C9485000C9485000C94850089
:100050000C9485000C9485000C9485000C9485000C
:100060000C9485000C9485000000000024002700FB
:100070002A0000000000250028002B0004040404CE
:100080000404040402020202020203030303030342
:10009000010204081020408001020408102001021F
:1000A00004081020000000080002010000030407FB
:1000B0000000000000000000110311241FBECFEF5C
:1000C000D8E0DEBFCDBF11E0A0E0B1E0E2ECF7E0A8
:1000D00002C005900D92A433B107D9F721E0A4E343
:1000E000B1E001C01D92A535B207E1F710E0CDE502
:1000F000D0E004C02197FE010E94D903CC35D1077E
:10010000C9F70E94AE020C94DF030C940000AF927A
:10011000BF92CF92DF92EF92FF920F931F93CF93F4
:10012000DF936C017B018B01040F151FEB015E0156
:10013000AE18BF08C017D10759F06991D601ED91EB
:10014000FC910190F081E02DC6010995892B79F78A
:10015000C501DF91CF911F910F91FF90EF90DF903C
:10016000CF90BF90AF90089590E0FC01EC55FF4F09
:100170002491FC01E057FF4F3491FC01E458FF4FFC
:10018000E491EE23C9F0222339F0233001F1A8F4E1
:10019000213019F1223029F1F0E0EE0FFF1FEE5867
:1001A000FF4FA591B4918FB7F894EC91611126C0DF
:1001B00030953E233C938FBF08952730A9F0283017
:1001C000C9F0243049F7809180008F7D03C0809171
:1001D00080008F7780938000DFCF84B58F7784BDD8
:1001E000DBCF84B58F7DFBCF8091B0008F7780937C
:1001F000B000D2CF8091B0008F7DF9CF3E2BDACF07
:10020000CF93DF9390E0FC01E057FF4F2491845897
:100210009F4FFC0184918823D1F090E0880F991FB3
:10022000FC01E859FF4FA591B491FC01EE58FF4F36
:10023000C591D49161110EC09FB7F8948C91E22FB3
:10024000E0958E238C932881E223E8839FBFDF9182
:10025000CF9108958FB7F894EC91E22BEC938FBF78
:10026000F6CF0895089590E080E00895CF93DF934E
:10027000EC0160E08E810E94B40061E08E810E94FA
:10028000B40060E08E810E94B4008BE891E0019799
:10029000F1F7DF91CF910895CF92DF92EF92FF9225
:1002A0000F931F93CF93DF936C017C0187E0E80EDF
:1002B000F11CD0E0C0E0062F10E0B8010C2E02C007
:1002C000759567950A94E2F76170F70181917F0156
:1002D0000E94B4002196C430D10579F7C601DF91A0
:1002E000CF911F910F91FF90EF90DF90CF900C94E2
:1002F0003601CF92DF92EF92FF920F931F93CF932D
:10030000DF93EC01F62E642F8C810E94B4008D8166
:100310008F3F19F060E00E94B4000F2D10E08F8530
:1003200084FF25C06E0187E0C80ED11CF12CE12CA2
:10033000B8010E2C02C0759567950A94E2F76170BA
:10034000F60181916F010E94B400FFEFEF1AFF0ADE
:1003500088E0E816F10461F7CE01DF91CF911F919B
:100360000F91FF90EF90DF90CF900C943601B80181
:1003700084E0759567958A95E1F7CE010E944C015E
:100380006F2DCE01DF91CF911F910F91FF90EF90D4
:10039000DF90CF900C944C0140E0682F8DE391E00A
:1003A0000C94790141E00E94790181E090E0089588
:1003B00060E082E00E940001E1E080915001811143
:1003C000E0E0E195F0E0E35CFE4F848980680E9404
:1003D000CC0140E150E060E171E08DE391E00E94EA
:1003E000870061E087E00E94B40060E086E00C9442
:1003F000B400E1E0809150018111E0E0E195F0E08E
:10040000E35CFE4F848980680E94CC0141E150E0AA
:1004100061E271E08DE391E00E94870061E086E097
:100420000E94B40060E087E00C94B4001F920F9229
:100430000FB60F9211242F933F938F939F93AF93F7
:10044000BF938091390190913A01A0913B01B09105
:100450003C013091380123E0230F2D3758F50196E8
:10046000A11DB11D209338018093390190933A0169
:10047000A0933B01B0933C018091340190913501F0
:10048000A0913601B09137010196A11DB11D809355
:10049000340190933501A0933601B0933701BF9199
:1004A000AF919F918F913F912F910F900FBE0F9021
:1004B0001F90189526E8230F0296A11DB11DD2CFDB
:1004C0001F920F920FB60F9211242F933F934F93C9
:1004D0005F936F937F938F939F93AF93BF93EF93AC
:1004E000FF93E0910201F09103010995FF91EF91D3
:1004F000BF91AF919F918F917F916F915F914F913C
:100500003F912F910F900FBE0F901F9018951F9243
:100510000F920FB60F9211242F933F934F935F9337
:100520006F937F938F939F93AF93BF93EF93FF93BB
:10053000E0910001F09101010995FF91EF91BF91C8
:10054000AF919F918F917F916F915F914F913F916B
:100550002F910F900FBE0F901F901895789484B52F
:10056000826084BD84B5816084BD85B5826085BDAF
:1005700085B5816085BD80916E00816080936E003D
:10058000109281008091810082608093810080912F
:1005900081008160809381008091800081608093E0
:1005A00080008091B10084608093B1008091B000A0
:1005B00081608093B00080917A00846080937A009B
:1005C00080917A00826080937A0080917A008160C5
:1005D00080937A0080917A00806880937A001092EC
:1005E000C10089EF91E09093010180930001809117
:1005F0006900836080936900E89A88ED91E09093A8
:10060000010180930001809169008C7F826080935A
:100610006900E89AC0E0D0E02097F1F30E94000062
:10062000FBCFCF93DF931092400110923F0188E0FF
:1006300091E090933E0180933D018CE080934101D5
:100640008FEF809342018BE08093430185E080939C
:10065000440184E08093450183E08093460189E072
:1006600080934701109248011092490110924A016B
:1006700010924B0110924C0181E080935001109236
:10068000510180E48093520180E18093530180E521
:100690008093540161E08CE00E940001809142014E
:1006A0008F3F19F061E00E94000161E080914301F9
:1006B0000E940001CDE3D1E09E012D533140809195
:1006C0004C0184FD0BC084E090E021962817390787
:1006D00044F461E08E810E940001EECF88E090E05A
:1006E000F4CF8BE39DE00197F1F760E08091410149
:1006F0000E94B40060E0809143010E94B4008091A8
:1007000042018F3F19F060E00E94B40080914C01DB
:1007100084FD39C063E08DE391E00E944C01CBE49D
:10072000D6E4CE010197F1F763E08DE391E00E94FA
:100730004C012197F1F763E08DE391E00E944C01B9
:1007400083E592E00197F1F762E08DE391E00E948A
:100750004C0180914C0180620E94CC0184E0809326
:100760004D018CE00E94CC0181E00E94CC018BE322
:100770009FE10197F1F782E080934E0186E0DF91DF
:10078000CF910C94CC0180620E94CC018BE496E462
:100790000197F1F780914C0180620E94CC0183E5C2
:1007A00092E00197F1F780914C0180620E94CC01A8
:1007B000D0CFEE0FFF1F0590F491E02D0994F8942F
:0207C000FFCF69
:1007C2003101310100000000D20187003301320102
:1007D2004761732044657465637465643A204E6FA3
:1007E200004761732044657465637465643A2059F7
:0407F200657300002B
:00000001FF
