:100000000C9462000C948A000C948A000C948A0070
:100010000C948A000C948A000C948A000C948A0038
:100020000C948A000C948A000C948A000C948A0028
:100030000C948A000C948A000C948A000C948A0018
:100040000C940C020C948A000C948A000C948A0084
:100050000C948A000C948A000C948A000C948A00F8
:100060000C948A000C948A000000000024002700F1
:100070002A0000000000250028002B0000000000DE
:1000800023002600290004040404040404040202DA
:100090000202020203030303030301020408102007
:1000A0004080010204081020010204081020000012
:1000B0000008000201000003040700000000000027
:1000C00000003B0311241FBECFEFD8E0DEBFCDBF41
:1000D00011E0A0E0B1E0E6E1F8E002C005900D9289
:1000E000AE32B107D9F721E0AEE2B1E001C01D9216
:1000F000AF34B207E1F710E0C2E6D0E004C02197C8
:10010000FE010E940304C136D107C9F70E945602BE
:100110000C9409040C940000AF92BF92CF92DF922E
:10012000EF92FF920F931F93CF93DF936C017B01AC
:100130008B01040F151FEB015E01AE18BF08C0173D
:10014000D10759F06991D601ED91FC910190F081B0
:10015000E02DC6010995892B79F7C501DF91CF9173
:100160001F910F91FF90EF90DF90CF90BF90AF90D5
:100170000895833081F028F4813099F08230A9F01D
:1001800008958730A9F08830C9F08430B1F48091A7
:1001900080008F7D03C0809180008F7780938000E6
:1001A000089584B58F7784BD089584B58F7DFBCF86
:1001B0008091B0008F778093B00008958091B00057
:1001C0008F7DF9CF1F93CF93DF93282F30E0F90174
:1001D000E255FF4F8491F901E656FF4FD491F901A2
:1001E000EA57FF4FC491CC23A9F0162F81110E942A
:1001F000B900EC2FF0E0EE0FFF1FEE58FF4FA59176
:10020000B4918FB7F894EC91111108C0D095DE230A
:10021000DC938FBFDF91CF911F910895DE2BF8CF34
:10022000CF93DF9390E0FC01E656FF4F24918A576D
:100230009F4FFC0184918823D1F090E0880F991F93
:10024000FC01E859FF4FA591B491FC01EE58FF4F16
:10025000C591D49161110EC09FB7F8948C91E22F93
:10026000E0958E238C932881E223E8839FBFDF9162
:10027000CF9108958FB7F894EC91E22BEC938FBF58
:10028000F6CF3FB7F8948091330190913401A0915B
:100290003501B091360126B5A89B05C02F3F19F056
:1002A0000196A11DB11D3FBFBA2FA92F982F8827F6
:1002B000BC01CD01620F711D811D911D42E0660FD1
:1002C000771F881F991F4A95D1F70895089590E0E8
:1002D00080E00895CF93DF93EC0160E08E810E946F
:1002E000E20061E08E810E94E20060E08E810E9467
:1002F000E2008BE891E00197F1F7DF91CF9108954B
:10030000CF92DF92EF92FF920F931F93CF93DF93E1
:100310006C017C0187E0E80EF11CD0E0C0E0062F04
:1003200010E0B8010C2E02C0759567950A94E2F7AB
:100330006170F70181917F010E94E2002196C43033
:10034000D10579F7C601DF91CF911F910F91FF90F1
:10035000EF90DF90CF900C946A01CF92DF92EF92F2
:10036000FF920F931F93CF93DF93EC01F62E642F30
:100370008C810E94E2008D818F3F19F060E00E9425
:10038000E2000F2D10E08F8584FF25C06E0187E00D
:10039000C80ED11CF12CE12CB8010E2C02C07595B1
:1003A00067950A94E2F76170F60181916F010E94EE
:1003B000E200FFEFEF1AFF0A88E0E816F10461F7A8
:1003C000CE01DF91CF911F910F91FF90EF90DF90C1
:1003D000CF900C946A01B80184E0759567958A9571
:1003E000E1F7CE010E9480016F2DCE01DF91CF9108
:1003F0001F910F91FF90EF90DF90CF900C948001B0
:1004000040E0682F87E391E00C94AD0141E00E9449
:10041000AD0181E090E008951F920F920FB60F9208
:1004200011242F933F938F939F93AF93BF9380910A
:100430002F0190913001A0913101B09132013091A2
:100440002E0123E0230F2D3758F50196A11DB11D74
:1004500020932E0180932F0190933001A0933101BE
:10046000B09332018091330190913401A091350114
:10047000B09136010196A11DB11D80933301909377
:100480003401A0933501B0933601BF91AF919F9194
:100490008F913F912F910F900FBE0F901F90189545
:1004A00026E8230F0296A11DB11DD2CF789484B502
:1004B000826084BD84B5816084BD85B5826085BD60
:1004C00085B5816085BD80916E00816080936E00EE
:1004D00010928100809181008260809381008091E0
:1004E0008100816080938100809180008160809391
:1004F00080008091B10084608093B1008091B00051
:1005000081608093B00080917A00846080937A004B
:1005100080917A00826080937A0080917A00816075
:1005200080937A0080917A00806880937A0010929C
:10053000C10060E089E00E94100161E08AE00E9451
:10054000100127EB222E20E0322E33EA832E30E0FA
:10055000932ECFE8D0E00BE31FE140E0A42E40E073
:10056000B42EF1018491F401F490FE01E490EE20A8
:1005700009F462C081110E94B900EE2DF0E0EE0F87
:10058000FF1FE458FF4FA591B4918C91F82209F414
:1005900053C0E1E080914A018111E0E0E195F0E093
:1005A000E95CFE4F848980680E94000240E150E0CF
:1005B0006CE071E087E391E00E948C0061E086E0EE
:1005C0000E94E20061E08AE00E94E20060E087E0D1
:1005D0000E94E2000E9441012B013C0184EFC82EE1
:1005E000DD24D394E12CF12C0E944101641975099A
:1005F00086099709683E734081059105A8F3F1E0EB
:10060000CF1AD108E108F10828EE420E23E0521E6D
:10061000611C711CC114D104E104F10429F781E0CB
:100620000E940002C8010197F1F7A114B10409F476
:1006300098CF0E94000095CFE1E080914A0181119E
:10064000E0E0E195F0E0E95CFE4F848980680E947B
:10065000000240E150E06DE171E087E391E00E942B
:100660008C0060E086E00E94E20060E08AE00E9488
:10067000E20061E0ACCFCF93DF9310923A01109289
:10068000390184E091E090933801809337018CE048
:1006900080933B018FEF80933C018BE080933D0181
:1006A00085E080933E0184E080933F0183E0809366
:1006B000400182E080934101109242011092430177
:1006C00010924401109245011092460181E08093FE
:1006D0004A0110924B0180E480934C0180E18093A9
:1006E0004D0180E580934E0161E08CE00E94100195
:1006F00080913C018F3F19F061E00E94100161E0A0
:1007000080913D010E941001C7E3D1E09E01275373
:1007100031408091460184FD0BC084E090E0219639
:100720002817390744F461E08E810E941001EECF52
:1007300088E090E0F4CF8BE39DE00197F1F760E073
:1007400080913B010E94E20060E080913D010E94A7
:10075000E20080913C018F3F19F060E00E94E200CE
:100760008091460184FD39C063E087E391E00E94F7
:100770008001CBE4D6E4CE010197F1F763E087E393
:1007800091E00E9480012197F1F763E087E391E017
:100790000E94800183E592E00197F1F762E087E330
:1007A00091E00E9480018091460180620E940002D7
:1007B00084E0809347018CE00E94000281E00E9467
:1007C00000028BE39FE10197F1F782E080934801FB
:1007D00086E0DF91CF910C94000280620E940002BB
:1007E0008BE496E40197F1F78091460180620E94C4
:1007F000000283E592E00197F1F780914601806263
:100800000E940002D0CFEE0FFF1F0590F491E02D63
:060810000994F894FFCFEB
:100816000000000006028C00670166012020476187
:1008260073204465746563746564202000476173B2
:0E083600206E6F742044657465637465640001
:00000001FF
