:020000040000FA
:100000000C9463000C945A050C9433050C948B00EB
:100010000C948B000C948B000C948B000C948D042E
:100020000C948B000C948B000C948B000C948B0024
:100030000C948B000C948B000C948B000C948B0014
:100040000C94E9040C948B000C948B000C948B00A2
:100050000C948B000C948B000C948B000C948B00F4
:100060000C948B000C948B000000000024002700EF
:100070002A000000000023002600290000000008DC
:10008000000201000003040700000000000000005F
:10009000010204081020408001020408102001021F
:1000A0000408102000000000250028002B00040494
:1000B0000404040404040202020202020303030310
:1000C00003030200B70711241FBECFEFD8E0DEBF45
:1000D000CDBF11E0A0E0B1E0ECEFF2E102C005908D
:1000E0000D92AC37B107D9F721E0ACE7B1E001C020
:1000F0001D92A43CB207E1F710E0C3E6D0E004C0D3
:100100002197FE010E945108C236D107C9F70E940B
:1001100081050C947C090C940000AF92BF92CF92A1
:10012000DF92EF92FF920F931F93CF93DF936C01B7
:100130007B018B01040F151FEB015E01AE18BF0898
:10014000C017D10759F06991D601ED91FC9101904A
:10015000F081E02DC6010995892B79F7C501DF9162
:10016000CF911F910F91FF90EF90DF90CF90BF90B4
:10017000AF900895833081F028F4813099F0823077
:10018000A9F008958730A9F08830C9F08430B1F41F
:10019000809180008F7D03C0809180008F77809355
:1001A0008000089584B58F7784BD089584B58F7DD0
:1001B000FBCF8091B0008F778093B000089580913D
:1001C000B0008F7DF9CFCF93DF93282F30E0F90176
:1001D000E458FF4F8491F901E057FF4FD491F901A2
:1001E000E255FF4FC491CC23A1F081110E94BA00C7
:1001F000EC2FF0E0EE0FFF1FEE58FF4FA591B491EA
:10020000EC91ED2381E090E009F480E0DF91CF9163
:10021000089580E090E0FACF1F93CF93DF93282FCB
:1002200030E0F901E458FF4F8491F901E057FF4FA6
:10023000D491F901E255FF4FC491CC23A9F0162FB8
:1002400081110E94BA00EC2FF0E0EE0FFF1FEC5579
:10025000FF4FA591B4918FB7F894EC91111108C09C
:10026000D095DE23DC938FBFDF91CF911F9108954E
:10027000DE2BF8CF1092960160E08DE00C940C011B
:100280009091040189130BC0E2ECF0E0E4919FEF40
:1002900090930401E13049F028F0E23061F060E031
:1002A0000C940C0110926E00FACF90916F009D7F1C
:1002B00090936F00F4CF909170009D7F90937000A9
:1002C00091E09093B0009091B100987F94609093EA
:1002D000B1001092B300E3CFCF93DF9390E0FC0125
:1002E000E057FF4F249182559F4FFC018491882352
:1002F000C9F090E0880F991FFC01E859FF4FA591C4
:10030000B491FC01EC55FF4FC591D49161110DC022
:100310009FB7F8948C91209582238C938881282311
:1003200028839FBFDF91CF910895623051F49FB72A
:10033000F8943C91822F809583238C93E8812E2B17
:10034000EFCF8FB7F894EC912E2B2C938FBFEACF81
:100350003FB7F8948091810190918201A09183012F
:10036000B091840126B5A89B05C02F3F19F00196D6
:10037000A11DB11D3FBFBA2FA92F982F8827BC01FF
:10038000CD01620F711D811D911D42E0660F771F27
:10039000881F991F4A95D1F708958F929F92AF9227
:1003A000BF92CF92DF92EF92FF926B017C010E948D
:1003B000A8014B015C01C114D104E104F104B9F0BE
:1003C0000E94A801681979098A099B09683E73404F
:1003D0008105910580F321E0C21AD108E108F108F6
:1003E00088EE880E83E0981EA11CB11CE4CFFF901C
:1003F000EF90DF90CF90BF90AF909F908F90089537
:1004000008950895089590E080E008958F929F9256
:10041000AF92BF920F931F93CF93DF93CDB7DEB709
:10042000A1970FB6F894DEBF0FBECDBF19A2423020
:1004300008F44AE08E010F5D1F4F842E912CB12CE1
:10044000A12CA50194010E94FC07E62FB901CA0165
:10045000EA3044F5E05DD801EE938D01232B242B87
:10046000252B79F790E080E0109769F0FD0101906D
:100470000020E9F73197AF014A1B5B0BBD0188EA09
:1004800091E00E948D00A1960FB6F894DEBF0FBEDA
:10049000CDBFDF91CF911F910F91BF90AF909F90F3
:1004A0008F900895E95CD7CFFC0101900020E9F717
:1004B0003197AF01481B590BBC0188EA91E00C94BD
:1004C0008D00FF920F931F93CF93DF93F82E062F8B
:1004D000C7E0D0E010E061E0802F0E940C018F2D7A
:1004E0000E94E3000C2E01C0880F0A94EAF7182B33
:1004F00060E0802F0E940C01219768F7812FDF9127
:10050000CF911F910F91FF9008959F92AF92BF924C
:10051000CF92DF92EF92FF920F931F93CF93DF93CF
:10052000DAE0C12CD12C760180919E010E94E3007B
:10053000892B31F060E070E0CB010E94CD01F4CF57
:100540009FB6F89460919D0180919E010E94610286
:10055000C82F60919D0180919E010E946102082F29
:1005600060919D0180919E010E946102182FB12C23
:10057000A12C80919F018A151B0479F070F061E035
:1005800080919D010E940C0160E080919D010E947C
:100590000C018FEFA81AB80AECCF9FBE802F90E015
:1005A000B0E0A0E0BA2FA92F982F8827AC2B812B81
:1005B000CC0FCC0B4C2F50E070E060E0742F66271E
:1005C00055274427842B952BA62BB72BC80ED91E55
:1005D000EA1EFB1E60E070E0CB010E94CD01D1500D
:1005E00009F0A2CFC701B6012AE030E040E050E0B8
:1005F0000E941E08CA01B901DF91CF911F910F918E
:10060000FF90EF90DF90CF90BF90AF909F900895B4
:10061000CF93DF93EC0160E08E810E940C0161E0DA
:100620008E810E940C0160E08E810E940C018BE89B
:1006300091E00197F1F7DF91CF910895CF92DF928A
:10064000EF92FF920F931F93CF93DF936C017C0186
:1006500087E0E80EF11CD0E0C0E0062F10E0B80102
:100660000C2E02C0759567950A94E2F76170F70148
:1006700081917F010E940C012196C430D10579F748
:10068000C601DF91CF911F910F91FF90EF90DF9006
:10069000CF900C940803CF92DF92EF92FF920F93CA
:1006A0001F93CF93DF93EC01F62E642F8C810E9471
:1006B0000C018D818F3F19F060E00E940C010F2D1D
:1006C00010E08F8584FF25C06E0187E0C80ED11C25
:1006D000F12CE12CB8010E2C02C0759567950A9497
:1006E000E2F76170F60181916F010E940C01FFEF4A
:1006F000EF1AFF0A88E0E816F10461F7CE01DF91F6
:10070000CF911F910F91FF90EF90DF90CF900C94BD
:100710000803B80184E0759567958A95E1F7CE01E5
:100720000E941E036F2DCE01DF91CF911F910F917B
:10073000FF90EF90DF90CF900C941E0340E0682F65
:1007400088EA91E00C944B039091BB01691710F07B
:100750006FEF690FE62FF0E0E855FE4F9489890F9F
:1007600080680C949E0381E00E949E038BE39FE1CE
:100770000197F1F70895CF93DF93823029F4909198
:10078000B70198609093B7018093BB011092BC01B0
:1007900080E48093BD0180E18093BE0180E5809379
:1007A000BF0161E08091AC010E946C018091AD01BC
:1007B0008F3F19F061E00E946C0161E08091AE0111
:1007C0000E946C01C8EAD1E09E01285A3140809114
:1007D000B70184FD0BC084E090E02196281739070B
:1007E00044F461E08E810E946C01EECF88E090E0DD
:1007F000F4CF8BE39DE00197F1F760E08091AC01CD
:100800000E940C0160E08091AE010E940C01809179
:10081000AD018F3F19F060E00E940C018091B7019B
:1008200084FD34C063E088EA91E00E941E03CBE4BB
:10083000D6E4CE010197F1F763E088EA91E00E94E7
:100840001E032197F1F763E088EA91E00E941E03FE
:1008500083E592E00197F1F762E088EA91E00E9477
:100860001E038091B70180620E949E0384E0809302
:10087000B8018CE00E949E030E94B30382E0809343
:10088000B90186E0DF91CF910C949E0380620E94B3
:100890009E038BE496E40197F1F78091B7018062A3
:1008A0000E949E0383E592E00197F1F78091B701E2
:1008B00080620E949E03D5CF41E00E944B0381E0FD
:1008C00090E00895CF92DF92EF92FF926C01990F22
:1008D000EE08FF08F7FE16C041E06DE288EA91E0FD
:1008E0000E944B0366277727CB016C197D098E097F
:1008F0009F094AE00E9406020196FF90EF90DF9068
:10090000CF9008954AE0C701B601FF90EF90DF90C5
:10091000CF900C9406020C94F3081F920F920FB61E
:100920000F9211242F933F934F935F936F937F9375
:100930008F939F93AF93BF93EF93FF9380918A011F
:1009400090918B01A0918C01B0918D01892B8A2B04
:100950008B2BD1F190918501E0918601F091870177
:1009600080818927808380918A0190918B01A09159
:100970008C01B0918D01181619061A061B069CF4FD
:1009800080918A0190918B01A0918C01B0918D0191
:100990000197A109B10980938A0190938B01A093DB
:1009A0008C01B0938D01FF91EF91BF91AF919F9119
:1009B0008F917F916F915F914F913F912F910F9008
:1009C0000FBE0F901F901895809104010E94400166
:1009D000EACF1F920F920FB60F9211242F933F93DD
:1009E0008F939F93AF93BF9380917D0190917E01F0
:1009F000A0917F01B091800130917C0123E0230F11
:100A00002D3758F50196A11DB11D20937C018093CF
:100A10007D0190937E01A0937F01B093800180912E
:100A2000810190918201A0918301B091840101968E
:100A3000A11DB11D8093810190938201A093830138
:100A4000B0938401BF91AF919F918F913F912F916E
:100A50000F900FBE0F901F90189526E8230F029657
:100A6000A11DB11DD2CF1F920F920FB60F9211246C
:100A70002F933F934F935F936F937F938F939F93A6
:100A8000AF93BF93EF93FF93E0910201F0910301C5
:100A90000995FF91EF91BF91AF919F918F917F91B8
:100AA0006F915F914F913F912F910F900FBE0F90DB
:100AB0001F9018951F920F920FB60F9211242F932B
:100AC0003F934F935F936F937F938F939F93AF93D6
:100AD000BF93EF93FF93E0910001F091010109951D
:100AE000FF91EF91BF91AF919F918F917F916F9106
:100AF0005F914F913F912F910F900FBE0F901F90DC
:100B00001895789484B5826084BD84B5816084BD75
:100B100085B5826085BD85B5816085BD80916E009B
:100B2000816080936E0010928100809181008260CC
:100B30008093810080918100816080938100809109
:100B400080008160809380008091B10084608093F8
:100B5000B1008091B00081608093B00080917A00F4
:100B6000846080937A0080917A00826080937A001A
:100B700080917A00816080937A0080917A00806809
:100B800080937A001092C10082E00E94BB038FE143
:100B900091E00E94540261E08CE00E94A4038BE289
:100BA00091E00E94540268EE73E080E090E00E94C1
:100BB000CD0180E180939D018FE080939E0161E0F3
:100BC00080E10E946C0160E080919E010E946C01B6
:100BD00081E080939F010E94B3038FE291E00E9425
:100BE000540260ED77E080E090E00E94CD010E9429
:100BF000850228E539E340E050E00E94FC072D50D3
:100C0000310930939A01209399010E94B30361E066
:100C100087E00E946C0161E088E00E946C0161E065
:100C20008AE00E946C0160E082E00E946C0161E059
:100C30008DE00E946C0162E083E00E946C018AE317
:100C400091E0909303018093020180916900837F7A
:100C5000886080936900E99A38E5432E39E3532E82
:100C6000612C712C4FE7242E4EE3342E52ECC52E0E
:100C700050E0D52E08EB10E06AE9E62E60E0F62E93
:100C800088248A94982C5401D4E60E948502A301FA
:100C900092010E94FC078091990190919A01281B72
:100CA000390BD29FC001D39F900D11246DE070E0ED
:100CB0000E94E807709398016093970182E00E9478
:100CC000E30061E0019709F015C187E00E940C0183
:100CD00060E088E00E940C01809104018A30B1F448
:100CE000F601C491C7FDAEC061E08AE00E946C01CC
:100CF000CC2309F479C0C23009F08AC08091B100D8
:100D0000887F84608093B10089EFE1C08F3F09F054
:100D100099C08AE080930401F601C491CF3F09F4A1
:100D200091C0C13019F150F0C23009F43CC0C7FD88
:100D300089C061E08AE00E946C01DDCF14BC15BC63
:100D400084B5826084BD85B5816085BDF8018491DC
:100D5000E82FF0E0EE0FFF1FEC55FF4F85919491C7
:100D6000F701849180938901C0E0BECF109280008A
:100D70001092810080918100886080938100809131
:100D80008100816080938100F8018491E82FF0E078
:100D9000EE0FFF1FEC55FF4F85919491F701849161
:100DA00080938801A1CF1092B0001092B100809181
:100DB000B00082608093B0008091B1008160809328
:100DC000B100F8018491E82FF0E0EE0FFF1FEC5521
:100DD000FF4F859194919093870180938601F7014D
:100DE00084918093850180CF85B5887F836085BDA0
:100DF00089EF87BD8092920190929301A092940115
:100E0000B092950180916E00826080936E001AC04E
:100E1000C13009F055C080918100887F8160809346
:100E20008100309289002092880080928E019092F9
:100E30008F01A0929001B092910180916F00826029
:100E400080936F0061E08DE00E940C0160E080E023
:100E50000E94A4038EE391E00E94540261E080E0CE
:100E60000E94A40381E0809396018FE491E00E94A8
:100E7000540261E087E00E94A40380919701909161
:100E800098010E94620480919701909198018436A4
:100E900091056CF561E089E00E94A40387E591E08B
:100EA0000E94540264EF71E080E090E00E94CD0166
:100EB00080E090E0892B09F4E8CE0E940000E4CEA7
:100EC000C23021F0C111BECF8FE793CF8FE780935F
:100ED000B30080928A0190928B01A0928C01B09213
:100EE0008D0180917000826080937000ABCF61E0D3
:100EF0008AE0D2CF88E00E940C0160E087E00E9487
:100F00000C018AE00E9440018091960160E081110D
:100F100028C00E94A4038AE591E00E94540261E087
:100F200080E00E94A4038FE491E00E94540261E0FB
:100F300087E00E94A40380919701909198010E94FC
:100F4000620480919701909198019C012A50310987
:100F50002A35310508F49ECF0A974CF661E088E007
:100F60009BCF80E00E94A4038BE691E0D6CFE8EA15
:100F7000F1E01382128287E191E0918380838CE01B
:100F800084838FEF85838BE0868386E0878385E08B
:100F9000808784E0818789E082871386148615869E
:100FA0001686178681E00E94BB03EBE9F1E08FE033
:100FB00091E091838083158216821782108680E0EB
:100FC00090E0A0E8BFE381879287A387B487089564
:100FD00097FB072E16F4009407D077FD09D00E94E6
:100FE0003D0807FC05D03EF4909581959F4F0895EC
:100FF000709561957F4F0895A1E21A2EAA1BBB1B25
:10100000FD010DC0AA1FBB1FEE1FFF1FA217B307D4
:10101000E407F50720F0A21BB30BE40BF50B661FEA
:10102000771F881F991F1A9469F7609570958095AE
:1010300090959B01AC01BD01CF010895052E97FB52
:101040001EF400940E94350857FD07D00E94FC074B
:1010500007FC03D04EF40C9435085095409530951C
:1010600021953F4F4F4F5F4F089590958095709514
:1010700061957F4F8F4F9F4F0895AA1BBB1B51E176
:1010800007C0AA1FBB1FA617B70710F0A61BB70BF8
:10109000881F991F5A95A9F780959095BC01CD019D
:1010A0000895EE0FFF1F0590F491E02D09940F9322
:1010B0001F93CF93DF938230910510F482E090E08C
:1010C000E091C201F091C30130E020E0B0E0A0E087
:1010D000309799F42115310509F44AC0281B390BC2
:1010E00024303105D8F58A819B816115710589F11C
:1010F000FB0193838283FE0111C0408151810281F3
:10110000138148175907E0F04817590799F41097C9
:1011100061F012960C93129713961C933296CF019E
:10112000DF91CF911F910F9108950093C201109309
:10113000C301F4CF2115310551F04217530738F0A0
:10114000A901DB019A01BD01DF01F801C1CFEF0167
:10115000F9CF9093C3018093C201CDCFFE01E20F7E
:10116000F31F819391932250310939832883D7CF7C
:101170002091C0013091C101232B41F4209107013E
:10118000309108013093C1012093C00120910501E5
:10119000309106012115310541F42DB73EB740913C
:1011A000090150910A01241B350BE091C001F09117
:1011B000C101E217F307A0F42E1B3F0B28173907D4
:1011C00078F0AC014E5F5F4F2417350748F04E0FA3
:1011D0005F1F5093C1014093C001819391939FCFB2
:1011E000F0E0E0E09CCFCF93DF930097E9F0FC01C3
:1011F000329713821282A091C201B091C301ED0116
:1012000030E020E01097A1F420813181820F931FFC
:101210002091C0013091C1012817390709F061C040
:10122000F093C101E093C001DF91CF910895EA01ED
:10123000CE17DF07E8F54A815B819E014115510514
:10124000B1F7E901FB83EA8349915991C40FD51F96
:10125000EC17FD0761F4808191810296840F951F40
:10126000E90199838883828193819B838A83F0E05B
:10127000E0E012968D919C9113970097B9F52D910E
:101280003C911197CD010296820F931F2091C001CE
:101290003091C1012817390739F6309751F510926E
:1012A000C3011092C201B093C101A093C001BCCF91
:1012B000D383C28340815181840F951FC817D907FA
:1012C00061F44E5F5F4F88819981480F591F5183A8
:1012D00040838A819B81938382832115310509F0A4
:1012E000B0CFF093C301E093C2019ECFFD01DC01BA
:1012F000C0CF13821282D7CFF894FFCF0002000232
:10130000FF0000C40180000000000001028B040007
:101310000000005C048D00030202024465746563F2
:10132000746F72206465004761730043616C696289
:10133000726174696E672E2E2E0020204741532063
:1013400044455445435445442020004C4556454CA3
:101350003A2000252000474153204E4F5420444559
:10136000544543544544004741532057415320447A
:08137000455445435445440077
:107E0000112484B714BE81FFF0D085E080938100F7
:107E100082E08093C00088E18093C10086E0809377
:107E2000C20080E18093C4008EE0C9D0259A86E02C
:107E300020E33CEF91E0309385002093840096BBD3
:107E4000B09BFECF1D9AA8958150A9F7CC24DD24C4
:107E500088248394B5E0AB2EA1E19A2EF3E0BF2EE7
:107E6000A2D0813461F49FD0082FAFD0023811F036
:107E7000013811F484E001C083E08DD089C08234E0
:107E800011F484E103C0853419F485E0A6D080C0E4
:107E9000853579F488D0E82EFF2485D0082F10E0AE
:107EA000102F00270E291F29000F111F8ED06801E7
:107EB0006FC0863521F484E090D080E0DECF843638
:107EC00009F040C070D06FD0082F6DD080E0C81688
:107ED00080E7D80618F4F601B7BEE895C0E0D1E017
:107EE00062D089930C17E1F7F0E0CF16F0E7DF06D8
:107EF00018F0F601B7BEE89568D007B600FCFDCFD4
:107F0000A601A0E0B1E02C9130E011968C91119780
:107F100090E0982F8827822B932B1296FA010C0160
:107F200087BEE89511244E5F5F4FF1E0A038BF0790
:107F300051F7F601A7BEE89507B600FCFDCF97BE46
:107F4000E89526C08437B1F42ED02DD0F82E2BD052
:107F50003CD0F601EF2C8F010F5F1F4F84911BD097
:107F6000EA94F801C1F70894C11CD11CFA94CF0C13
:107F7000D11C0EC0853739F428D08EE10CD085E9AC
:107F80000AD08FE07ACF813511F488E018D01DD067
:107F900080E101D065CF982F8091C00085FFFCCF94
:107FA0009093C60008958091C00087FFFCCF809118
:107FB000C00084FD01C0A8958091C6000895E0E648
:107FC000F0E098E1908380830895EDDF803219F02E
:107FD00088E0F5DFFFCF84E1DECF1F93182FE3DFCA
:107FE0001150E9F7F2DF1F91089580E0E8DFEE27F6
:047FF000FF270994CA
:027FFE00040479
:00000001FF
