:020000040000FA
:100000000C9463000C945C050C9435050C948B00E7
:100010000C948B000C948B000C948B000C948F042C
:100020000C948B000C948B000C948B000C948B0024
:100030000C948B000C948B000C948B000C948B0014
:100040000C94EB040C948B000C948B000C948B00A0
:100050000C948B000C948B000C948B000C948B00F4
:100060000C948B000C948B000000000024002700EF
:100070002A000000000023002600290000000008DC
:10008000000201000003040700000000000000005F
:10009000010204081020408001020408102001021F
:1000A0000408102000000000250028002B00040494
:1000B0000404040404040202020202020303030310
:1000C000030302000F0811241FBECFEFD8E0DEBFEC
:1000D000CDBF11E0A0E0B1E0ECEAF3E102C0059091
:1000E0000D92A039B107D9F721E0A0E9B1E001C034
:1000F0001D92AD3DB207E1F710E0C3E6D0E004C0C9
:100100002197FE010E94A908C236D107C9F70E94B3
:1001100083050C94D4090C940000AF92BF92CF9247
:10012000DF92EF92FF920F931F93CF93DF936C01B7
:100130007B018B01040F151FEB015E01AE18BF0898
:10014000C017D10759F06991D601ED91FC9101904A
:10015000F081E02DC6010995892B79F7C501DF9162
:10016000CF911F910F91FF90EF90DF90CF90BF90B4
:10017000AF900895833081F028F4813099F0823077
:10018000A9F008958730A9F08830C9F08430B1F41F
:10019000809180008F7D03C0809180008F77809355
:1001A0008000089584B58F7784BD089584B58F7DD0
:1001B000FBCF8091B0008F778093B000089580913D
:1001C000B0008F7DF9CFCF93DF93282F30E0F90176
:1001D000E458FF4F8491F901E057FF4FD491F901A2
:1001E000E255FF4FC491CC23A1F081110E94BA00C7
:1001F000EC2FF0E0EE0FFF1FEE58FF4FA591B491EA
:10020000EC91ED2381E090E009F480E0DF91CF9163
:10021000089580E090E0FACF1F93CF93DF93282FCB
:1002200030E0F901E458FF4F8491F901E057FF4FA6
:10023000D491F901E255FF4FC491CC23A9F0162FB8
:1002400081110E94BA00EC2FF0E0EE0FFF1FEC5579
:10025000FF4FA591B4918FB7F894EC91111108C09C
:10026000D095DE23DC938FBFDF91CF911F9108954E
:10027000DE2BF8CF1092AA011092AB0160E08DE066
:100280000C940C019091040189130BC0E2ECF0E096
:10029000E4919FEF90930401E13049F028F0E230BF
:1002A00061F060E00C940C0110926E00FACF909116
:1002B0006F009D7F90936F00F4CF909170009D7FB1
:1002C0009093700091E09093B0009091B100987F6E
:1002D00094609093B1001092B300E3CFCF93DF937B
:1002E00090E0FC01E057FF4F249182559F4FFC01A5
:1002F00084918823C9F090E0880F991FFC01E85988
:10030000FF4FA591B491FC01EC55FF4FC591D491DD
:1003100061110DC09FB7F8948C91209582238C9326
:100320008881282328839FBFDF91CF910895623071
:1003300051F49FB7F8943C91822F809583238C933E
:10034000E8812E2BEFCF8FB7F894EC912E2B2C93C6
:100350008FBFEACF3FB7F8948091910190919201BD
:10036000A0919301B091940126B5A89B05C02F3FA1
:1003700019F00196A11DB11D3FBFBA2FA92F982FCB
:100380008827BC01CD01620F711D811D911D42E0C6
:10039000660F771F881F991F4A95D1F708958F928E
:1003A0009F92AF92BF92CF92DF92EF92FF926B013A
:1003B0007C010E94AA014B015C01C114D104E1043B
:1003C000F104B9F00E94AA01681979098A099B0908
:1003D000683E73408105910580F321E0C21AD1087F
:1003E000E108F10888EE880E83E0981EA11CB11C7C
:1003F000E4CFFF90EF90DF90CF90BF90AF909F90B1
:100400008F90089508950895089590E080E00895EC
:100410008F929F92AF92BF920F931F93CF93DF93D0
:10042000CDB7DEB7A1970FB6F894DEBF0FBECDBF34
:1004300019A2423008F44AE08E010F5D1F4F842E4E
:10044000912CB12CA12CA50194010E945408E62FF7
:10045000B901CA01EA3044F5E05DD801EE938D019F
:10046000232B242B252B79F790E080E0109769F05F
:10047000FD0101900020E9F73197AF014A1B5B0BAA
:10048000BD0181EC91E00E948D00A1960FB6F89419
:10049000DEBF0FBECDBFDF91CF911F910F91BF90F7
:1004A000AF909F908F900895E95CD7CFFC010190A9
:1004B0000020E9F73197AF01481B590BBC0181ECD3
:1004C00091E00C948D00FF920F931F93CF93DF93D5
:1004D000F82E062FC7E0D0E010E061E0802F0E94E8
:1004E0000C018F2D0E94E3000C2E01C0880F0A948E
:1004F000EAF7182B60E0802F0E940C01219768F723
:10050000812FDF91CF911F910F91FF9008959F92BE
:10051000AF92BF92CF92DF92EF92FF920F931F9311
:10052000CF93DF93DAE0C12CD12C76018091B70113
:100530000E94E300892B31F060E070E0CB010E9463
:10054000CF01F4CF9FB6F8946091B6018091B701C6
:100550000E946302C82F6091B6018091B7010E948A
:100560006302082F6091B6018091B7010E94630277
:10057000182FB12CA12C8091B8018A151B0479F099
:1005800070F061E08091B6010E940C0160E0809102
:10059000B6010E940C018FEFA81AB80AECCF9FBEDB
:1005A000802F90E0B0E0A0E0BA2FA92F982F8827E5
:1005B000AC2B812BCC0FCC0B4C2F50E070E060E0CB
:1005C000742F662755274427842B952BA62BB72BF2
:1005D000C80ED91EEA1EFB1E60E070E0CB010E942F
:1005E000CF01D15009F0A2CFC701B6012AE030E017
:1005F00040E050E00E947608CA01B901DF91CF9136
:100600001F910F91FF90EF90DF90CF90BF90AF9030
:100610009F900895CF93DF93EC0160E08E810E945C
:100620000C0161E08E810E940C0160E08E810E94CD
:100630000C018BE891E00197F1F7DF91CF910895DC
:10064000CF92DF92EF92FF920F931F93CF93DF939E
:100650006C017C0187E0E80EF11CD0E0C0E0062FC1
:1006600010E0B8010C2E02C0759567950A94E2F768
:100670006170F70181917F010E940C012196C430C5
:10068000D10579F7C601DF91CF911F910F91FF90AE
:10069000EF90DF90CF900C940A03CF92DF92EF920D
:1006A000FF920F931F93CF93DF93EC01F62E642FED
:1006B0008C810E940C018D818F3F19F060E00E94B7
:1006C0000C010F2D10E08F8584FF25C06E0187E09F
:1006D000C80ED11CF12CE12CB8010E2C02C075956E
:1006E00067950A94E2F76170F60181916F010E94AB
:1006F0000C01FFEFEF1AFF0A88E0E816F10461F73A
:10070000CE01DF91CF911F910F91FF90EF90DF907D
:10071000CF900C940A03B80184E0759567958A958B
:10072000E1F7CE010E9420036F2DCE01DF91CF9122
:100730001F910F91FF90EF90DF90CF900C942003CA
:1007400040E0682F81EC91E00C944D039091D4012E
:10075000691710F06FEF690FE62FF0E0EF53FE4FCF
:100760009489890F80680C94A00381E00E94A00303
:100770008BE39FE10197F1F70895CF93DF938230E8
:1007800029F49091D00198609093D0018093D40186
:100790001092D50180E48093D60180E18093D70147
:1007A00080E58093D80161E08091C5010E946E01CF
:1007B0008091C6018F3F19F061E00E946E0161E0F7
:1007C0008091C7010E946E01C1ECD1E09E01215CC5
:1007D00031408091D00184FD0BC084E090E02196EF
:1007E0002817390744F461E08E810E946E01EECF34
:1007F00088E090E0F4CF8BE39DE00197F1F760E0B3
:100800008091C5010E940C0160E08091C7010E94A7
:100810000C018091C6018F3F19F060E00E940C012D
:100820008091D00184FD34C063E081EC91E00E94AE
:100830002003CBE4D6E4CE010197F1F763E081EC2D
:1008400091E00E9420032197F1F763E081EC91E0B1
:100850000E94200383E592E00197F1F762E081ECCA
:1008600091E00E9420038091D00180620E94A00349
:1008700084E08093D1018CE00E94A0030E94B50324
:1008800082E08093D20186E0DF91CF910C94A003A7
:1008900080620E94A0038BE496E40197F1F78091B7
:1008A000D00180620E94A00383E592E00197F1F7F6
:1008B0008091D00180620E94A003D5CF41E00E94C8
:1008C0004D0381E090E00895CF92DF92EF92FF9286
:1008D0006C01990FEE08FF08F7FE16C041E06DE2CB
:1008E00081EC91E00E944D0366277727CB016C19BC
:1008F0007D098E099F094AE00E9408020196FF9037
:10090000EF90DF90CF9008954AE0C701B601FF90C5
:10091000EF90DF90CF900C9408020C944B091F923B
:100920000F920FB60F9211242F933F934F935F9323
:100930006F937F938F939F93AF93BF93EF93FF93A7
:1009400080919E0190919F01A091A001B091A10181
:10095000892B8A2B8B2BD1F190919901E0919A01EF
:10096000F0919B0180818927808380919E019091E5
:100970009F01A091A001B091A101181619061A06B5
:100980001B069CF480919E0190919F01A091A00173
:10099000B091A1010197A109B10980939E019093A3
:1009A0009F01A093A001B093A101FF91EF91BF918E
:1009B000AF919F918F917F916F915F914F913F91F7
:1009C0002F910F900FBE0F901F90189580910401EA
:1009D0000E944201EACF1F920F920FB60F9211248C
:1009E0002F933F938F939F93AF93BF9380919501E4
:1009F00090919601A0919701B0919801309190014A
:100A000023E0230F2D3758F50196A11DB11D20932A
:100A100090018093950190939601A0939701B093D4
:100A200098018091910190919201A0919301B091D0
:100A300094010196A11DB11D8093910190939201A3
:100A4000A0939301B0939401BF91AF919F918F9127
:100A50003F912F910F900FBE0F901F90189526E891
:100A6000230F0296A11DB11DD2CF1F920F920FB678
:100A70000F9211242F933F934F935F936F937F9324
:100A80008F939F93AF93BF93EF93FF93E0910201F6
:100A9000F09103010995FF91EF91BF91AF919F9163
:100AA0008F917F916F915F914F913F912F910F9017
:100AB0000FBE0F901F9018951F920F920FB60F92B6
:100AC00011242F933F934F935F936F937F938F9353
:100AD0009F93AF93BF93EF93FF93E0910001F09149
:100AE00001010995FF91EF91BF91AF919F918F9176
:100AF0007F916F915F914F913F912F910F900FBE1A
:100B00000F901F901895CF93DF9300D000D0CDB7F2
:100B1000DEB7789484B5826084BD84B5816084BD7D
:100B200085B5826085BD85B5816085BD80916E008B
:100B3000816080936E0010928100809181008260BC
:100B400080938100809181008160809381008091F9
:100B500080008160809380008091B10084608093E8
:100B6000B1008091B00081608093B00080917A00E4
:100B7000846080937A0080917A00826080937A000A
:100B800080917A00816080937A0080917A008068F9
:100B900080937A001092C10082E00E94BD0381E23E
:100BA00091E00E94560261E08CE00E94A6038DE273
:100BB00091E00E94560268EE73E080E090E00E94AF
:100BC000CF0180E18093B6018FE08093B70161E0AF
:100BD00080E10E946E0160E08091B7010E946E0189
:100BE00081E08093B8010E94B50381E391E00E9407
:100BF000560260ED77E080E090E00E94CF010E9415
:100C0000870228E539E340E050E00E9454082D5067
:100C100031093093B3012093B2010E94B50361E022
:100C200087E00E946E0161E088E00E946E0161E051
:100C30008AE00E946E0160E082E00E946E0161E045
:100C40008DE00E946E0162E083E00E946E018AE303
:100C500091E0909303018093020180916900837F6A
:100C6000886080936900E99A38E5832E39E3932EF2
:100C7000A12CB12C4DE0642E712C52EC252E50E0AD
:100C8000352E68EB462E60E0562ECC24CA94DC2C20
:100C900076010E948702A50194010E945408809168
:100CA000B2019091B301281B390B04E6029FC001E9
:100CB000039F900D1124B3010E9440087093B1016D
:100CC0006093B0018FB7F8944091950150919601CF
:100CD00060919701709198018FBF40355105610572
:100CE000710541F41092AC011092AD011092AE0169
:100CF0001092AF018091B0019091B1012091050156
:100D0000309106018217930711F1909306018093A9
:100D100005018091AC019091AD01A091AE01B0911F
:100D2000AF018A019B01081B190B2A0B3B0B0037F3
:100D30001741210531051CF491E09093AB014093DC
:100D4000AC015093AD016093AE017093AF0182E0AE
:100D50000E94E30061E00197E9F18091AB0181110C
:100D600039C088E00E940C0160E087E00E940C011D
:100D70008AE00E94420160E080E00E94A603809128
:100D8000AA01811149C18DE691E00E94560261E0FD
:100D900080E00E94A60382E691E00E94560261E094
:100DA00087E00E94A6038091B0019091B1010E945A
:100DB00064048091B0019091B1019C012A503109E5
:100DC0002A35310508F4F5C00A970CF022C161E01C
:100DD00088E0F1C087E00E940C0160E088E00E949A
:100DE0000C01809104018A30B1F4F101149117FDD6
:100DF000B3C061E08AE00E946E01112309F47CC057
:100E0000123009F08DC08091B100887F846080939A
:100E1000B10089EFEBC08F3F09F09EC08AE080935C
:100E20000401F10114911F3F09F496C0113021F122
:100E300050F0123009F43EC017FD8EC061E08AE028
:100E40000E946E01DDCF14BC15BC84B5826084BDE8
:100E500085B5816085BDF2018491E82FF0E0EE0F49
:100E6000FF1FEC55FF4F85919491EAE9F0E08491E2
:100E700080939D0110E0BDCF109280001092810000
:100E800080918100886080938100809181008160E1
:100E900080938100F2018491E82FF0E0EE0FFF1FB4
:100EA000EC55FF4F85919491EAE9F0E084918093AD
:100EB0009C019FCF1092B0001092B1008091B000C1
:100EC00082608093B0008091B10081608093B10016
:100ED000F2018491E82FF0E0EE0FFF1FEC55FF4F79
:100EE0008591949190939B0180939A01EAE9F0E0B7
:100EF0008491809399017DCF85B5887F836085BD7E
:100F000089EF87BDC092A601D092A701E092A80107
:100F1000F092A90180916E00826080936E001CC0E7
:100F2000113009F05CC080918100887F81608093DE
:100F300081000FE71EE31093890000938800C092A0
:100F4000A201D092A301E092A401F092A5018091A8
:100F50006F00826080936F0061E08DE00E940C0161
:100F600060E080E00E94A6038091AB01882309F431
:100F70004DC080E491E00E94560261E080E00E9452
:100F8000A60311E01093AA0182E691E00E945602A6
:100F900061E087E00E94A6038091B0019091B101C9
:100FA0000E9464048091B0019091B1018436910552
:100FB00084F561E089E00E94A6038AE691E00E9440
:100FC000560264EF71E080E090E00E94CF0120E0E3
:100FD00030E0232B09F45DCE0E9400005ACE12307F
:100FE00021F01111B9CF8FE78CCF8FE78093B30039
:100FF000C0929E01D0929F01E092A001F092A101C7
:1010000080917000826080937000A6CF81E591E0AE
:10101000B2CF61E08AE0CFCF8EE791E0B6CEE1ECCF
:10102000F1E01382128289E191E0918380838CE068
:1010300084838FEF85838BE0868386E0878385E0DA
:10104000808784E0818789E08287138614861586ED
:101050001686178681E00E94BD03E4EBF1E081E192
:1010600091E091838083158216821782108680E03A
:1010700090E0A0E8BFE381879287A387B4870895B3
:1010800097FB072E16F4009407D077FD09D00E9435
:10109000950807FC05D03EF4909581959F4F0895E3
:1010A000709561957F4F0895A1E21A2EAA1BBB1B74
:1010B000FD010DC0AA1FBB1FEE1FFF1FA217B30724
:1010C000E407F50720F0A21BB30BE40BF50B661F3A
:1010D000771F881F991F1A9469F7609570958095FE
:1010E00090959B01AC01BD01CF010895052E97FBA2
:1010F0001EF400940E948D0857FD07D00E945408EA
:1011000007FC03D04EF40C948D0850954095309513
:1011100021953F4F4F4F5F4F089590958095709563
:1011200061957F4F8F4F9F4F0895AA1BBB1B51E1C5
:1011300007C0AA1FBB1FA617B70710F0A61BB70B47
:10114000881F991F5A95A9F780959095BC01CD01EC
:101150000895EE0FFF1F0590F491E02D09940F9371
:101160001F93CF93DF938230910510F482E090E0DB
:10117000E091DB01F091DC0130E020E0B0E0A0E0A4
:10118000309799F42115310509F44AC0281B390B11
:1011900024303105D8F58A819B816115710589F16B
:1011A000FB0193838283FE0111C040815181028142
:1011B000138148175907E0F04817590799F4109719
:1011C00061F012960C93129713961C933296CF01EE
:1011D000DF91CF911F910F9108950093DB01109340
:1011E000DC01F4CF2115310551F04217530738F0D7
:1011F000A901DB019A01BD01DF01F801C1CFEF01B7
:10120000F9CF9093DC018093DB01CDCFFE01E20F9B
:10121000F31F819391932250310939832883D7CFCB
:101220002091D9013091DA01232B41F42091090159
:1012300030910A013093DA012093D90120910701FE
:10124000309108012115310541F42DB73EB7409189
:101250000B0150910C01241B350BE091D901F09149
:10126000DA01E217F307A0F42E1B3F0B281739070A
:1012700078F0AC014E5F5F4F2417350748F04E0FF2
:101280005F1F5093DA014093D901819391939FCFCF
:10129000F0E0E0E09CCFCF93DF930097E9F0FC0112
:1012A000329713821282A091DB01B091DC01ED0133
:1012B00030E020E01097A1F420813181820F931F4C
:1012C0002091D9013091DA012817390709F061C05E
:1012D000F093DA01E093D901DF91CF910895EA010B
:1012E000CE17DF07E8F54A815B819E014115510564
:1012F000B1F7E901FB83EA8349915991C40FD51FE6
:10130000EC17FD0761F4808191810296840F951F8F
:10131000E90199838883828193819B838A83F0E0AA
:10132000E0E012968D919C9113970097B9F52D915D
:101330003C911197CD010296820F931F2091D90104
:101340003091DA012817390739F6309751F51092A4
:10135000DC011092DB01B093DA01A093D901BCCF7C
:10136000D383C28340815181840F951FC817D90749
:1013700061F44E5F5F4F88819981480F591F5183F7
:1013800040838A819B81938382832115310509F0F3
:10139000B0CFF093DC01E093DB019ECFFD01DC01D7
:1013A000C0CF13821282D7CFF894FFCF020202027D
:1013B000FF64000000DD0180000000000003028DDA
:1013C00004000000005E048D000502040244657400
:1013D0006563746F72206465004761730043616CDC
:1013E0006962726174696E672E2E2E0020202020A3
:1013F000474153204C45414B2020202000202047CE
:1014000041532044455445435445442020004C4515
:1014100056454C3A2000252000474153204E4F545A
:1014200020444554454354454400474153205741C7
:0C143000532044455445435445440000FB
:107E0000112484B714BE81FFF0D085E080938100F7
:107E100082E08093C00088E18093C10086E0809377
:107E2000C20080E18093C4008EE0C9D0259A86E02C
:107E300020E33CEF91E0309385002093840096BBD3
:107E4000B09BFECF1D9AA8958150A9F7CC24DD24C4
:107E500088248394B5E0AB2EA1E19A2EF3E0BF2EE7
:107E6000A2D0813461F49FD0082FAFD0023811F036
:107E7000013811F484E001C083E08DD089C08234E0
:107E800011F484E103C0853419F485E0A6D080C0E4
:107E9000853579F488D0E82EFF2485D0082F10E0AE
:107EA000102F00270E291F29000F111F8ED06801E7
:107EB0006FC0863521F484E090D080E0DECF843638
:107EC00009F040C070D06FD0082F6DD080E0C81688
:107ED00080E7D80618F4F601B7BEE895C0E0D1E017
:107EE00062D089930C17E1F7F0E0CF16F0E7DF06D8
:107EF00018F0F601B7BEE89568D007B600FCFDCFD4
:107F0000A601A0E0B1E02C9130E011968C91119780
:107F100090E0982F8827822B932B1296FA010C0160
:107F200087BEE89511244E5F5F4FF1E0A038BF0790
:107F300051F7F601A7BEE89507B600FCFDCF97BE46
:107F4000E89526C08437B1F42ED02DD0F82E2BD052
:107F50003CD0F601EF2C8F010F5F1F4F84911BD097
:107F6000EA94F801C1F70894C11CD11CFA94CF0C13
:107F7000D11C0EC0853739F428D08EE10CD085E9AC
:107F80000AD08FE07ACF813511F488E018D01DD067
:107F900080E101D065CF982F8091C00085FFFCCF94
:107FA0009093C60008958091C00087FFFCCF809118
:107FB000C00084FD01C0A8958091C6000895E0E648
:107FC000F0E098E1908380830895EDDF803219F02E
:107FD00088E0F5DFFFCF84E1DECF1F93182FE3DFCA
:107FE0001150E9F7F2DF1F91089580E0E8DFEE27F6
:047FF000FF270994CA
:027FFE00040479
:00000001FF
