:020000040000FA
:100000000C9463000C9494060C946D060C948B0075
:100010000C948B000C948B000C948B000C946F054B
:100020000C948B000C948B000C948B000C948B0024
:100030000C948B000C948B000C948B000C948B0014
:100040000C9423060C948B000C94F1050C94CB05B6
:100050000C948B000C948B000C948B000C948B00F4
:100060000C948B000C948B000000000024002700EF
:100070002A000000000023002600290000000008DC
:10008000000201000003040700000000000000005F
:10009000010204081020408001020408102001021F
:1000A0000408102000000000250028002B00040494
:1000B0000404040404040202020202020303030310
:1000C00003030200BB0611241FBECFEFD8E0DEBF42
:1000D000CDBF11E0A0E0B1E0E8EEF6E102C005908E
:1000E0000D92A23AB107D9F722E0A2EAB1E001C02D
:1000F0001D92AC38B207E1F710E0C3E6D0E004C0CF
:100100002197FE010E94470AC236D107C9F70E9413
:1001100018070C94720B0C940000AF92BF92CF9210
:10012000DF92EF92FF920F931F93CF93DF936C01B7
:100130007B018B01040F151FEB015E01AE18BF0898
:10014000C017D10759F06991D601ED91FC9101904A
:10015000F081E02DC6010995892B79F7C501DF9162
:10016000CF911F910F91FF90EF90DF90CF90BF90B4
:10017000AF900895FC01538D448D252F30E0842FDE
:1001800090E0821B930B541710F0CF9608950197BF
:100190000895FC01918D828D981761F0A28DAE0FAC
:1001A000BF2FB11D5D968C91928D9F5F9F73928F33
:1001B00090E008958FEF9FEF0895FC01918D828D5F
:1001C000981731F0828DE80FF11D858D90E008952C
:1001D0008FEF9FEF0895FC01918D228D892F90E084
:1001E000805C9F4F821B91098F739927089586EC3D
:1001F00091E00E94EB0021E0892B09F420E0822F9E
:10020000089580E090E0892B29F00E94F700811189
:100210000C9400000895FC01A48DA80FB92FB11D06
:10022000A35ABF4F2C91848D90E001968F7399272C
:10023000848FA689B7892C93A089B1898C9183700A
:1002400080648C93938D848D981306C00288F38903
:10025000E02D80818F7D80830895EF92FF920F9330
:100260001F93CF93DF93EC0181E0888F9B8D8C8D62
:1002700098131AC0E889F989808185FF15C09FB756
:10028000F894EE89FF896083E889F9898081837019
:10029000806480839FBF81E090E0DF91CF911F91C8
:1002A0000F91FF90EF900895F62E0B8D10E00F5FE9
:1002B0001F4F0F731127E02E8C8D8E110CC00FB6BF
:1002C00007FCFACFE889F989808185FFF5CFCE0157
:1002D0000E940B01F1CFEB8DEC0FFD2FF11DE35AC6
:1002E000FF4FF0829FB7F8940B8FEA89FB898081DA
:1002F0008062CFCFCF93DF93EC01888D8823B9F054
:10030000AA89BB89E889F9898C9185FD03C0808120
:1003100086FD0DC00FB607FCF7CF8C9185FFF2CF9D
:10032000808185FFEDCFCE010E940B01E9CFDF91E7
:10033000CF910895833081F028F4813099F0823094
:10034000A9F008958730A9F08830C9F08430B1F45D
:10035000809180008F7D03C0809180008F77809393
:100360008000089584B58F7784BD089584B58F7D0E
:10037000FBCF8091B0008F778093B000089580917B
:10038000B0008F7DF9CFCF93DF93282F30E0F901B4
:10039000E458FF4F8491F901E057FF4FD491F901E0
:1003A000E255FF4FC491CC23A1F081110E949A0124
:1003B000EC2FF0E0EE0FFF1FEE58FF4FA591B49128
:1003C000EC91ED2381E090E009F480E0DF91CF91A2
:1003D000089580E090E0FACF1F93CF93DF93282F0A
:1003E00030E0F901E458FF4F8491F901E057FF4FE5
:1003F000D491F901E255FF4FC491CC23A9F0162FF7
:1004000081110E949A01EC2FF0E0EE0FFF1FEC55D6
:10041000FF4FA591B4918FB7F894EC91111108C0DA
:10042000D095DE23DC938FBFDF91CF911F9108958C
:10043000DE2BF8CF1092BC011092BD0160E08DE080
:100440000C94EC019091040189130BC0E2ECF0E0F4
:10045000E4919FEF90930401E13049F028F0E230FD
:1004600061F060E00C94EC0110926E00FACF909174
:100470006F009D7F90936F00F4CF909170009D7FEF
:100480009093700091E09093B0009091B100987FAC
:1004900094609093B1001092B300E3CFCF93DF93B9
:1004A00090E0FC01E057FF4F249182559F4FFC01E3
:1004B00084918823C9F090E0880F991FFC01E859C6
:1004C000FF4FA591B491FC01EC55FF4FC591D4911C
:1004D00061110DC09FB7F8948C91209582238C9365
:1004E0008881282328839FBFDF91CF9108956230B0
:1004F00051F49FB7F8943C91822F809583238C937D
:10050000E8812E2BEFCF8FB7F894EC912E2B2C9304
:100510008FBFEACF3FB7F8948091A3019091A401D7
:10052000A091A501B091A60126B5A89B05C02F3FBB
:1005300019F00196A11DB11D3FBFBA2FA92F982F09
:100540008827BC01CD01620F711D811D911D42E004
:10055000660F771F881F991F4A95D1F708958F92CC
:100560009F92AF92BF92CF92DF92EF92FF926B0178
:100570007C010E948A024B015C01C114D104E10498
:10058000F104B9F00E948A02681979098A099B0965
:10059000683E73408105910580F321E0C21AD108BD
:1005A000E108F10888EE880E83E0981EA11CB11CBA
:1005B000E4CFFF90EF90DF90CF90BF90AF909F90EF
:1005C0008F90089508950895089590E080E008952B
:1005D000FF920F931F93CF93DF93F82E062FC7E060
:1005E000D0E010E061E0802F0E94EC018F2D0E948E
:1005F000C3010C2E01C0880F0A94EAF7182B60E0A3
:10060000802F0E94EC01219768F7812FDF91CF9115
:100610001F910F91FF9008959F92AF92BF92CF923A
:10062000DF92EF92FF920F931F93CF93DF93DAE065
:10063000C12CD12C7601809166020E94C301892BC6
:1006400031F060E070E0CB010E94AF02F4CF9FB6C2
:10065000F89460916502809166020E94E802C82FBA
:1006600060916502809166020E94E802082F609105
:100670006502809166020E94E802182FB12CA12C1D
:10068000809167028A151B0479F070F061E0809117
:1006900065020E94EC0160E0809165020E94EC011D
:1006A0008FEFA81AB80AECCF9FBE802F90E0B0E081
:1006B000A0E0BA2FA92F982F8827AC2B812BCC0F25
:1006C000CC0B4C2F50E070E060E0742F662755276C
:1006D0004427842B952BA62BB72BC80ED91EEA1EB8
:1006E000FB1E60E070E0CB010E94AF02D15009F028
:1006F000A2CFC701B6012AE030E040E050E00E94FE
:10070000140ACA01B901DF91CF911F910F91FF9097
:10071000EF90DF90CF90BF90AF909F900895CF93D0
:10072000DF93EC0160E08E810E94EC0161E08E813C
:100730000E94EC0160E08E810E94EC018BE891E068
:100740000197F1F7DF91CF910895CF92DF92EF9269
:10075000FF920F931F93CF93DF936C017C0187E08F
:10076000E80EF11CD0E0C0E0062F10E0B8010C2E1E
:1007700002C0759567950A94E2F76170F70181915F
:100780007F010E94EC012196C430D10579F7C601A2
:10079000DF91CF911F910F91FF90EF90DF90CF905D
:1007A0000C948F03CF92DF92EF92FF920F931F93DF
:1007B000CF93DF93EC01F62E642F8C810E94EC0125
:1007C0008D818F3F19F060E00E94EC010F2D10E049
:1007D0008F8584FF25C06E0187E0C80ED11CF12CE7
:1007E000E12CB8010E2C02C0759567950A94E2F7CA
:1007F0006170F60181916F010E94EC01FFEFEF1A29
:10080000FF0A88E0E816F10461F7CE01DF91CF918D
:100810001F910F91FF90EF90DF90CF900C948F037A
:10082000B80184E0759567958A95E1F7CE010E943D
:10083000A5036F2DCE01DF91CF911F910F91FF90F6
:10084000EF90DF90CF900C94A50340E0682F80E7F5
:1008500092E00C94D20390918302691710F06FEF2D
:10086000690FE62FF0E0E059FD4F9489890F806809
:100870000C94250481E00E9425048BE39FE10197FD
:10088000F1F70895CF93DF93823029F490917F029E
:10089000986090937F02809383021092840280E498
:1008A0008093850280E18093860280E580938702B1
:1008B00061E0809174020E944E02809175028F3F28
:1008C00019F061E00E944E0261E0809176020E9480
:1008D0004E02C0E7D2E09E012057324080917F0255
:1008E00084FD0BC084E090E021962817390744F47A
:1008F00061E08E810E944E02EECF88E090E0F4CF5E
:100900008BE39DE00197F1F760E0809174020E9413
:10091000EC0160E0809176020E94EC01809175020A
:100920008F3F19F060E00E94EC0180917F0284FD0E
:1009300034C063E080E792E00E94A503CBE4D6E4F4
:10094000CE010197F1F763E080E792E00E94A503F2
:100950002197F1F763E080E792E00E94A50383E529
:1009600092E00197F1F762E080E792E00E94A50330
:1009700080917F0280620E94250484E0809380023F
:100980008CE00E9425040E943A0482E08093810258
:1009900086E0DF91CF910C94250480620E942504AB
:1009A0008BE496E40197F1F780917F0280620E94C8
:1009B000250483E592E00197F1F780917F02806240
:1009C0000E942504D5CF41E00E94D20381E090E04F
:1009D00008958F929F92AF92BF920F931F93CF93E0
:1009E000DF93CDB7DEB7A1970FB6F894DEBF0FBE89
:1009F000CDBF19A2423008F44AE08E010F5D1F4FAF
:100A0000842E912CB12CA12CA50194010E94F209F5
:100A1000E62FB901CA01EA3044F5E05DD801EE9352
:100A20008D01232B242B252B79F790E080E0109764
:100A300069F0FD0101900020E9F73197AF014A1BF1
:100A40005B0BBD0180E792E00E948D00A1960FB67E
:100A5000F894DEBF0FBECDBFDF91CF911F910F91F4
:100A6000BF90AF909F908F900895E95CD7CFCF92C1
:100A7000DF92EF92FF926C01990FEE08FF08F7FEEC
:100A800016C041E06DE280E792E00E94D203662743
:100A90007727CB016C197D098E099F094AE00E94D6
:100AA000E9040196FF90EF90DF90CF9008954AE01F
:100AB000C701B601FF90EF90DF90CF900C94E9044E
:100AC000FC0101900020E9F73197AF01481B590B59
:100AD000BC0180E792E00C948D000C94E90A1F920F
:100AE0000F920FB60F9211242F933F934F935F9362
:100AF0006F937F938F939F93AF93BF93EF93FF93E6
:100B00008091B0019091B101A091B201B091B30177
:100B1000892B8A2B8B2BD1F19091AB01E091AC0109
:100B2000F091AD018081892780838091B0019091FF
:100B3000B101A091B201B091B301181619061A06BD
:100B40001B069CF48091B0019091B101A091B2017B
:100B5000B091B3010197A109B1098093B0019093BD
:100B6000B101A093B201B093B301FF91EF91BF9196
:100B7000AF919F918F917F916F915F914F913F9135
:100B80002F910F900FBE0F901F9018958091040128
:100B90000E942202EACF1F920F920FB60F921124E9
:100BA0002F933F934F935F936F937F938F939F9375
:100BB000AF93BF93EF93FF9386EC91E00E940B01FC
:100BC000FF91EF91BF91AF919F918F917F916F9125
:100BD0005F914F913F912F910F900FBE0F901F90FB
:100BE00018951F920F920FB60F9211242F938F9387
:100BF0009F93EF93FF93E091D601F091D70180810D
:100C0000E091DC01F091DD0182FD1BC090818091BB
:100C1000DF018F5F8F732091E001821741F0E09137
:100C2000DF01F0E0EA53FE4F958F8093DF01FF91E3
:100C3000EF919F918F912F910F900FBE0F901F906A
:100C400018958081F4CF1F920F920FB60F92112446
:100C50002F933F938F939F93AF93BF938091A7015F
:100C60009091A801A091A901B091AA013091A2018F
:100C700023E0230F2D3758F50196A11DB11D2093B8
:100C8000A2018093A7019093A801A093A901B0931A
:100C9000AA018091A3019091A401A091A501B09116
:100CA000A6010196A11DB11D8093A3019093A401FB
:100CB000A093A501B093A601BF91AF919F918F9191
:100CC0003F912F910F900FBE0F901F90189526E81F
:100CD000230F0296A11DB11DD2CF1F920F920FB606
:100CE0000F9211242F933F934F935F936F937F93B2
:100CF0008F939F93AF93BF93EF93FF93E091020184
:100D0000F09103010995FF91EF91BF91AF919F91F0
:100D10008F917F916F915F914F913F912F910F90A4
:100D20000FBE0F901F9018951F920F920FB60F9243
:100D300011242F933F934F935F936F937F938F93E0
:100D40009F93AF93BF93EF93FF93E0910001F091D6
:100D500001010995FF91EF91BF91AF919F918F9103
:100D60007F916F915F914F913F912F910F900FBEA7
:100D70000F901F901895E6ECF1E01382128288EE36
:100D800093E0A0E0B0E084839583A683B78381E1FC
:100D900091E09183808385EC90E09587848784EC53
:100DA00090E09787868780EC90E0918B808B81EC38
:100DB00090E0938B828B82EC90E0958B848B86EC19
:100DC00090E0978B868B118E128E138E148EE0E737
:100DD000F2E0138212828BE291E0918380838CE0B7
:100DE00084838FEF85838BE0868386E0878385E02D
:100DF000808784E0818789E0828713861486158640
:100E00001686178681E00E944204E3E6F2E083E260
:100E100091E091838083158216821782108680E08C
:100E200090E0A0E8BFE381879287A387B487089505
:100E3000CF93DF9300D000D0CDB7DEB7789484B5E0
:100E4000826084BD84B5816084BD85B5826085BDC6
:100E500085B5816085BD80916E00816080936E0054
:100E60001092810080918100826080938100809146
:100E700081008160809381008091800081608093F7
:100E800080008091B10084608093B1008091B000B7
:100E900081608093B00080917A00846080937A00B2
:100EA00080917A00826080937A0080917A008160DC
:100EB00080937A0080917A00806880937A00109203
:100EC000C100E091D601F091D70182E08083E091EA
:100ED000D201F091D3011082E091D401F091D501BB
:100EE0008FEC80831092DE01E091DA01F091DB015A
:100EF00086E08083E091D801F091D9018081806102
:100F00008083E091D801F091D9018081886080834D
:100F1000E091D801F091D901808180688083E091CF
:100F2000D801F091D90180818F7D808382E00E9479
:100F3000420483E391E00E94600561E08CE00E943E
:100F40002B048FE391E00E94600568EE73E080E07F
:100F500090E00E94AF0280E1809365028FE0809371
:100F6000660261E080E10E944E0260E080916602CC
:100F70000E944E0281E0809367020E943A0483E45B
:100F800091E00E94600560ED77E080E090E00E94D3
:100F9000AF020E940C0328E539E340E050E00E94D4
:100FA000F2092D5031093093C5012093C4010E94EC
:100FB0003A0461E087E00E944E0261E088E00E940E
:100FC0004E0261E08AE00E944E0260E082E00E94F0
:100FD0004E0261E08DE00E944E0262E083E00E94DA
:100FE0004E028AE192E09093030180930201809186
:100FF0006900837F886080936900E99A52EC252E0E
:1010000050E0352E68EB462E60E0562ECC24CA9474
:10101000DC2C760138E5832E39E3932EA12CB12CFC
:101020004DE0642E712C0E940C03A50194010E94D6
:10103000F2098091C4019091C501281B390B04E687
:10104000029FC001039F900D1124B3010E94DE098D
:101050007093C3016093C2018FB7F8944091A701C8
:101060005091A8016091A9017091AA018FBF4035EC
:1010700051056105710541F41092BE011092BF0146
:101080001092C0011092C1018091C2019091C301E0
:1010900020910501309106018217930711F1909379
:1010A0000601809305018091BE019091BF01A0913E
:1010B000C001B091C1018A019B01081B190B2A0BC9
:1010C0003B0B00371741210531051CF491E090934B
:1010D000BD014093BE015093BF016093C001709366
:1010E000C10182E00E94C30161E00197E9F18091B2
:1010F000BD01811139C088E00E94EC0160E087E009
:101100000E94EC018AE00E94220260E080E00E94DE
:101110002B048091BC0181114EC18FE791E00E94A8
:10112000600561E080E00E942B0484E791E00E946A
:10113000600561E087E00E942B048091C2019091DC
:10114000C3010E9437058091C2019091C3019C01A7
:101150002A5031092A35310508F4F5C00A970CF0F8
:1011600027C161E088E0F1C087E00E94EC0160E007
:1011700088E00E94EC01809104018A30B1F4F10111
:10118000149117FDB3C061E08AE00E944E02112362
:1011900009F47CC0123009F08DC08091B100887FC5
:1011A00084608093B10089EFF0C08F3F09F09EC04A
:1011B0008AE080930401F10114911F3F09F496C065
:1011C000113021F150F0123009F43EC017FD8EC0ED
:1011D00061E08AE00E944E02DDCF14BC15BC84B5EC
:1011E000826084BD85B5816085BDF2018491E82F60
:1011F000F0E0EE0FFF1FEC55FF4F85919491EAE967
:10120000F0E084918093AF0110E0BDCF1092800098
:10121000109281008091810088608093810080918C
:101220008100816080938100F2018491E82FF0E0D9
:10123000EE0FFF1FEC55FF4F85919491EAE9F0E026
:1012400084918093AE019FCF1092B0001092B100B4
:101250008091B00082608093B0008091B100816085
:101260008093B100F2018491E82FF0E0EE0FFF1FB0
:10127000EC55FF4F859194919093AD018093AC0113
:10128000EAE9F0E084918093AB017DCF85B5887F5A
:10129000836085BD89EF87BDC092B801D092B90146
:1012A000E092BA01F092BB0180916E00826080935F
:1012B0006E001CC0113009F061C080918100887FF0
:1012C0008160809381000FE71EE3109389000093F3
:1012D0008800C092B401D092B501E092B601F092BC
:1012E000B70180916F00826080936F0061E08DE0B4
:1012F0000E94EC0160E080E00E942B048091BD011F
:10130000882309F452C082E591E00E94600561E003
:1013100080E00E942B0411E01093BC0184E791E06F
:101320000E94600561E087E00E942B048091C20169
:101330009091C3010E9437058091C2019091C30131
:1013400084369105ACF561E089E00E942B048CE7BE
:1013500091E00E94600564EF71E080E090E00E94FF
:10136000AF0220E030E0232B09F45DCE0E94F700AD
:10137000882309F458CE0E9400004CCE123021F090
:101380001111B4CF8FE787CF8FE78093B300C0925E
:10139000B001D092B101E092B201F092B30180911C
:1013A0007000826080937000A1CF83E691E0ADCFA2
:1013B00061E08AE0CACF80E991E0B1CE97FB072EC9
:1013C00016F4009407D077FD09D00E94330A07FC79
:1013D00005D03EF4909581959F4F08957095619545
:1013E0007F4F0895A1E21A2EAA1BBB1BFD010DC061
:1013F000AA1FBB1FEE1FFF1FA217B307E407F507C5
:1014000020F0A21BB30BE40BF50B661F771F881FA0
:10141000991F1A9469F760957095809590959B0136
:10142000AC01BD01CF010895052E97FB1EF4009479
:101430000E942B0A57FD07D00E94F20907FC03D037
:101440004EF40C942B0A50954095309521953F4FC2
:101450004F4F5F4F089590958095709561957F4FA0
:101460008F4F9F4F0895AA1BBB1B51E107C0AA1FB6
:10147000BB1FA617B70710F0A61BB70B881F991F35
:101480005A95A9F780959095BC01CD010895EE0F6E
:10149000FF1F0590F491E02D09940F931F93CF93B4
:1014A000DF938230910510F482E090E0E0918A02AF
:1014B000F0918B0230E020E0B0E0A0E0309799F4AA
:1014C0002115310509F44AC0281B390B2430310598
:1014D000D8F58A819B816115710589F1FB019383A0
:1014E0008283FE0111C0408151810281138148171E
:1014F0005907E0F04817590799F4109761F01296D0
:101500000C93129713961C933296CF01DF91CF91D3
:101510001F910F91089500938A0210938B02F4CFCC
:101520002115310551F04217530738F0A901DB01AD
:101530009A01BD01DF01F801C1CFEF01F9CF90930E
:101540008B0280938A02CDCFFE01E20FF31F8193BD
:1015500091932250310939832883D7CF2091880273
:1015600030918902232B41F42091090130910A0125
:10157000309389022093880220910701309108015D
:101580002115310541F42DB73EB740910B01509123
:101590000C01241B350BE0918802F0918902E217BF
:1015A000F307A0F42E1B3F0B2817390778F0AC0186
:1015B0004E5F5F4F2417350748F04E0F5F1F509363
:1015C000890240938802819391939FCFF0E0E0E0FD
:1015D0009CCFCF93DF930097E9F0FC013297138201
:1015E0001282A0918A02B0918B02ED0130E020E0DE
:1015F0001097A1F420813181820F931F20918802DE
:10160000309189022817390709F061C0F0938902E7
:10161000E0938802DF91CF910895EA01CE17DF07AA
:10162000E8F54A815B819E0141155105B1F7E90159
:10163000FB83EA8349915991C40FD51FEC17FD072D
:1016400061F4808191810296840F951FE90199834D
:101650008883828193819B838A83F0E0E0E0129605
:101660008D919C9113970097B9F52D913C9111970D
:10167000CD010296820F931F20918802309189023A
:101680002817390739F6309751F510928B021092CE
:101690008A02B0938902A0938802BCCFD383C2830D
:1016A00040815181840F951FC817D90761F44E5F9F
:1016B0005F4F88819981480F591F518340838A81E8
:1016C0009B81938382832115310509F0B0CFF0937C
:1016D0008B02E0938A029ECFFD01DC01C0CF138212
:1016E0001282D7CFF894FFCFE202E202FF6400003B
:1016F000008C028000000000002D018D00BA007AED
:1017000001EB00C900DD0000000000E3026D0500F0
:10171000000000E3048D00E502E4024465746563A3
:10172000746F72206465004761730043616C696285
:10173000726174696E672E2E2E0020202020474192
:1017400053204C45414B202020200020204741536E
:101750002044455445435445442020004C455645BB
:101760004C3A2000252000474153204E4F5420443E
:101770004554454354454400474153205741532065
:0A178000444554454354454400001D
:107E0000112484B714BE81FFF0D085E080938100F7
:107E100082E08093C00088E18093C10086E0809377
:107E2000C20080E18093C4008EE0C9D0259A86E02C
:107E300020E33CEF91E0309385002093840096BBD3
:107E4000B09BFECF1D9AA8958150A9F7CC24DD24C4
:107E500088248394B5E0AB2EA1E19A2EF3E0BF2EE7
:107E6000A2D0813461F49FD0082FAFD0023811F036
:107E7000013811F484E001C083E08DD089C08234E0
:107E800011F484E103C0853419F485E0A6D080C0E4
:107E9000853579F488D0E82EFF2485D0082F10E0AE
:107EA000102F00270E291F29000F111F8ED06801E7
:107EB0006FC0863521F484E090D080E0DECF843638
:107EC00009F040C070D06FD0082F6DD080E0C81688
:107ED00080E7D80618F4F601B7BEE895C0E0D1E017
:107EE00062D089930C17E1F7F0E0CF16F0E7DF06D8
:107EF00018F0F601B7BEE89568D007B600FCFDCFD4
:107F0000A601A0E0B1E02C9130E011968C91119780
:107F100090E0982F8827822B932B1296FA010C0160
:107F200087BEE89511244E5F5F4FF1E0A038BF0790
:107F300051F7F601A7BEE89507B600FCFDCF97BE46
:107F4000E89526C08437B1F42ED02DD0F82E2BD052
:107F50003CD0F601EF2C8F010F5F1F4F84911BD097
:107F6000EA94F801C1F70894C11CD11CFA94CF0C13
:107F7000D11C0EC0853739F428D08EE10CD085E9AC
:107F80000AD08FE07ACF813511F488E018D01DD067
:107F900080E101D065CF982F8091C00085FFFCCF94
:107FA0009093C60008958091C00087FFFCCF809118
:107FB000C00084FD01C0A8958091C6000895E0E648
:107FC000F0E098E1908380830895EDDF803219F02E
:107FD00088E0F5DFFFCF84E1DECF1F93182FE3DFCA
:107FE0001150E9F7F2DF1F91089580E0E8DFEE27F6
:047FF000FF270994CA
:027FFE00040479
:00000001FF
