:020000040000FA
:100000000C9463000C9458050C9431050C948B00EF
:100010000C948B000C948B000C948B000C948B0430
:100020000C948B000C948B000C948B000C948B0024
:100030000C948B000C948B000C948B000C948B0014
:100040000C94E7040C948B000C948B000C948B00A4
:100050000C948B000C948B000C948B000C948B00F4
:100060000C948B000C948B000000000024002700EF
:100070002A000000000023002600290000000008DC
:10008000000201000003040700000000000000005F
:10009000010204081020408001020408102001021F
:1000A0000408102000000000250028002B00040494
:1000B0000404040404040202020202020303030310
:1000C00003030200A50711241FBECFEFD8E0DEBF57
:1000D000CDBF11E0A0E0B1E0E8EDF2E102C0059093
:1000E0000D92A437B107D9F721E0A4E7B1E001C030
:1000F0001D92AB3BB207E1F710E0C3E6D0E004C0CD
:100100002197FE010E943F08C236D107C9F70E941D
:100110007F050C946A090C940000AF92BF92CF92B5
:10012000DF92EF92FF920F931F93CF93DF936C01B7
:100130007B018B01040F151FEB015E01AE18BF0898
:10014000C017D10759F06991D601ED91FC9101904A
:10015000F081E02DC6010995892B79F7C501DF9162
:10016000CF911F910F91FF90EF90DF90CF90BF90B4
:10017000AF900895833081F028F4813099F0823077
:10018000A9F008958730A9F08830C9F08430B1F41F
:10019000809180008F7D03C0809180008F77809355
:1001A0008000089584B58F7784BD089584B58F7DD0
:1001B000FBCF8091B0008F778093B000089580913D
:1001C000B0008F7DF9CFCF93DF93282F30E0F90176
:1001D000E458FF4F8491F901E057FF4FD491F901A2
:1001E000E255FF4FC491CC23A1F081110E94BA00C7
:1001F000EC2FF0E0EE0FFF1FEE58FF4FA591B491EA
:10020000EC91ED2381E090E009F480E0DF91CF9163
:10021000089580E090E0FACF1F93CF93DF93282FCB
:1002200030E0F901E458FF4F8491F901E057FF4FA6
:10023000D491F901E255FF4FC491CC23A9F0162FB8
:1002400081110E94BA00EC2FF0E0EE0FFF1FEC5579
:10025000FF4FA591B4918FB7F894EC91111108C09C
:10026000D095DE23DC938FBFDF91CF911F9108954E
:10027000DE2BF8CF60E08DE00C940C01909104012E
:1002800089130BC0E2ECF0E0E4919FEF909304013E
:10029000E13049F028F0E23061F060E00C940C01AC
:1002A00010926E00FACF90916F009D7F90936F0037
:1002B000F4CF909170009D7F9093700091E09093A7
:1002C000B0009091B100987F94609093B10010922B
:1002D000B300E3CFCF93DF9390E0FC01E057FF4FF3
:1002E000249182559F4FFC0184918823C9F090E0AE
:1002F000880F991FFC01E859FF4FA591B491FC01AB
:10030000EC55FF4FC591D49161110DC09FB7F89482
:100310008C91209582238C938881282328839FBFEA
:10032000DF91CF910895623051F49FB7F8943C91DA
:10033000822F809583238C93E8812E2BEFCF8FB76C
:10034000F894EC912E2B2C938FBFEACF3FB7F89403
:100350008091790190917A01A0917B01B0917C010B
:1003600026B5A89B05C02F3F19F00196A11DB11D10
:100370003FBFBA2FA92F982F8827BC01CD01620F4C
:10038000711D811D911D42E0660F771F881F991F07
:100390004A95D1F708958F929F92AF92BF92CF92D4
:1003A000DF92EF92FF926B017C010E94A6014B014C
:1003B0005C01C114D104E104F104B9F00E94A6016A
:1003C000681979098A099B09683E7340810591057E
:1003D00080F321E0C21AD108E108F10888EE880E06
:1003E00083E0981EA11CB11CE4CFFF90EF90DF903A
:1003F000CF90BF90AF909F908F90089508950895EB
:10040000089590E080E008958F929F92AF92BF92FE
:100410000F931F93CF93DF93CDB7DEB7A1970FB69E
:10042000F894DEBF0FBECDBF19A2423008F44AE0F7
:100430008E010F5D1F4F842E912CB12CA12CA50194
:1004400094010E94EA07E62FB901CA01EA3044F597
:10045000E05DD801EE938D01232B242B252B79F71A
:1004600090E080E0109769F0FD0101900020E9F72D
:100470003197AF014A1B5B0BBD018FE991E00E94F0
:100480008D00A1960FB6F894DEBF0FBECDBFDF91F1
:10049000CF911F910F91BF90AF909F908F90089533
:1004A000E95CD7CFFC0101900020E9F73197AF015B
:1004B000481B590BBC018FE991E00C948D00FF9211
:1004C0000F931F93CF93DF93F82E062FC7E0D0E052
:1004D00010E061E0802F0E940C018F2D0E94E3004C
:1004E0000C2E01C0880F0A94EAF7182B60E0802FC9
:1004F0000E940C01219768F7812FDF91CF911F9106
:100500000F91FF9008959F92AF92BF92CF92DF928A
:10051000EF92FF920F931F93CF93DF93DAE0C12CFA
:10052000D12C7601809195010E94E300892B31F056
:1005300060E070E0CB010E94CB01F4CF9FB6F8944D
:1005400060919401809195010E945F02C82F609193
:100550009401809195010E945F02082F609194019F
:10056000809195010E945F02182FB12CA12C8091DF
:1005700096018A151B0479F070F061E08091940176
:100580000E940C0160E0809194010E940C018FEFA9
:10059000A81AB80AECCF9FBE802F90E0B0E0A0E090
:1005A000BA2FA92F982F8827AC2B812BCC0FCC0BDF
:1005B0004C2F50E070E060E0742F662755274427E9
:1005C000842B952BA62BB72BC80ED91EEA1EFB1E1B
:1005D00060E070E0CB010E94CB01D15009F0A2CFC6
:1005E000C701B6012AE030E040E050E00E940C086C
:1005F000CA01B901DF91CF911F910F91FF90EF9048
:10060000DF90CF90BF90AF909F900895CF93DF93EE
:10061000EC0160E08E810E940C0161E08E810E94FD
:100620000C0160E08E810E940C018BE891E0019743
:10063000F1F7DF91CF910895CF92DF92EF92FF9281
:100640000F931F93CF93DF936C017C0187E0E80E3B
:10065000F11CD0E0C0E0062F10E0B8010C2E02C063
:10066000759567950A94E2F76170F70181917F01B2
:100670000E940C012196C430D10579F7C601DF91A3
:10068000CF911F910F91FF90EF90DF90CF900C943E
:100690000603CF92DF92EF92FF920F931F93CF93B7
:1006A000DF93EC01F62E642F8C810E940C018D816A
:1006B0008F3F19F060E00E940C010F2D10E08F8534
:1006C00084FF25C06E0187E0C80ED11CF12CE12CFF
:1006D000B8010E2C02C0759567950A94E2F7617017
:1006E000F60181916F010E940C01FFEFEF1AFF0AE2
:1006F00088E0E816F10461F7CE01DF91CF911F91F8
:100700000F91FF90EF90DF90CF900C940603B8010B
:1007100084E0759567958A95E1F7CE010E941C03E8
:100720006F2DCE01DF91CF911F910F91FF90EF9030
:10073000DF90CF900C941C0340E0682F8FE991E08C
:100740000C9449039091B201691710F06FEF690F93
:10075000E62FF0E0E156FE4F9489890F80680C94F3
:100760009C0381E00E949C038BE39FE10197F1F7DA
:100770000895CF93DF93823029F49091AE01986071
:100780009093AE018093B2011092B30180E4809304
:10079000B40180E18093B50180E58093B60161E00A
:1007A0008091A3010E946A018091A4018F3F19F0FA
:1007B00061E00E946A0161E08091A5010E946A01E6
:1007C000CFE9D1E09E012F5931408091AE0184FDE7
:1007D0000BC084E090E021962817390744F461E0CB
:1007E0008E810E946A01EECF88E090E0F4CF8BE327
:1007F0009DE00197F1F760E08091A3010E940C0158
:1008000060E08091A5010E940C018091A4018F3FBE
:1008100019F060E00E940C018091AE0184FD34C0AB
:1008200063E08FE991E00E941C03CBE4D6E4CE01A3
:100830000197F1F763E08FE991E00E941C03219793
:10084000F1F763E08FE991E00E941C0383E592E0F9
:100850000197F1F762E08FE991E00E941C0380911B
:10086000AE0180620E949C0384E08093AF018CE023
:100870000E949C030E94B10382E08093B00186E055
:10088000DF91CF910C949C0380620E949C038BE4C7
:1008900096E40197F1F78091AE0180620E949C037B
:1008A00083E592E00197F1F78091AE0180620E94AA
:1008B0009C03D5CF41E00E94490381E090E0089578
:1008C000CF92DF92EF92FF926C01990FEE08FF0832
:1008D000F7FE16C041E06DE28FE991E00E94490306
:1008E00066277727CB016C197D098E099F094AE09D
:1008F0000E9404020196FF90EF90DF90CF90089540
:100900004AE0C701B601FF90EF90DF90CF900C94C2
:1009100004020C94E1081F920F920FB60F9211245B
:100920002F933F934F935F936F937F938F939F93F7
:10093000AF93BF93EF93FF938091820190918301D6
:10094000A0918401B0918501892B8A2B8B2BD1F149
:1009500090917D01E0917E01F0917F018081892756
:1009600080838091820190918301A0918401B09154
:100970008501181619061A061B069CF4809182013F
:1009800090918301A0918401B09185010197A10903
:10099000B1098093820190938301A0938401B09365
:1009A0008501FF91EF91BF91AF919F918F917F91C1
:1009B0006F915F914F913F912F910F900FBE0F90CC
:1009C0001F901895809104010E943E01EACF1F926A
:1009D0000F920FB60F9211242F933F938F939F93F3
:1009E000AF93BF938091750190917601A0917701AB
:1009F000B09178013091740123E0230F2D3758F521
:100A00000196A11DB11D20937401809375019093EF
:100A10007601A0937701B09378018091790190914C
:100A20007A01A0917B01B0917C010196A11DB11DBD
:100A30008093790190937A01A0937B01B0937C011C
:100A4000BF91AF919F918F913F912F910F900FBECA
:100A50000F901F90189526E8230F0296A11DB11D37
:100A6000D2CF1F920F920FB60F9211242F933F9364
:100A70004F935F936F937F938F939F93AF93BF93A6
:100A8000EF93FF93E0910201F09103010995FF912B
:100A9000EF91BF91AF919F918F917F916F915F91F6
:100AA0004F913F912F910F900FBE0F901F9018956F
:100AB0001F920F920FB60F9211242F933F934F93D3
:100AC0005F936F937F938F939F93AF93BF93EF93B6
:100AD000FF93E0910001F09101010995FF91EF91E1
:100AE000BF91AF919F918F917F916F915F914F9146
:100AF0003F912F910F900FBE0F901F9018957894F3
:100B000084B5826084BD84B5816084BD85B5826012
:100B100085BD85B5816085BD80916E0081608093C3
:100B20006E0010928100809181008260809381002C
:100B3000809181008160809381008091800081603C
:100B4000809380008091B10084608093B100809197
:100B5000B00081608093B00080917A0084608093BF
:100B60007A0080917A00826080937A0080917A0086
:100B7000816080937A0080917A00806880937A0007
:100B80001092C10082E00E94B9038FE191E00E94BF
:100B9000520261E08CE00E94A2038BE291E00E948D
:100BA000520268EE73E080E090E00E94CB0180E1A9
:100BB000809394018FE08093950161E080E10E9431
:100BC0006A0160E0809195010E946A0181E0809352
:100BD00096010E94B1038FE291E00E94520260ED03
:100BE00077E080E090E00E94CB010E94830228E53C
:100BF00039E340E050E00E94EA072D50310930937C
:100C00009101209390010E94B10361E087E00E946E
:100C10006A0161E088E00E946A0161E08AE00E9466
:100C20006A0160E082E00E946A0161E08DE00E945A
:100C30006A0162E083E00E946A018AE391E0909396
:100C400003018093020180916900837F8860809313
:100C50006900E99A38E5432E39E3532E612C712C53
:100C60004FE7242E4EE3342E52ECC52E50E0D52E05
:100C700008EB10E06AE9E62E60E0F62E88248A94FC
:100C8000982C5401D4E60E948302A30192010E9491
:100C9000EA078091900190919101281B390BD29F16
:100CA000C001D39F900D11246DE070E00E94D60723
:100CB00070938F0160938E0182E00E94E30061E0F7
:100CC000019709F012C187E00E940C0160E088E002
:100CD0000E940C01809104018A30B1F4F601C491A4
:100CE000C7FDAEC061E08AE00E946A01CC2309F42E
:100CF00079C0C23009F08AC08091B100887F8460D9
:100D00008093B10089EFDEC08F3F09F099C08AE07F
:100D100080930401F601C491CF3F09F491C0C13022
:100D200019F150F0C23009F43CC0C7FD89C061E040
:100D30008AE00E946A01DDCF14BC15BC84B58260D4
:100D400084BD85B5816085BDF8018491E82FF0E010
:100D5000EE0FFF1FEC55FF4F85919491F7018491A1
:100D600080938101C0E0BECF10928000109281007C
:100D700080918100886080938100809181008160F2
:100D800080938100F8018491E82FF0E0EE0FFF1FBF
:100D9000EC55FF4F85919491F701849180938001E8
:100DA000A1CF1092B0001092B1008091B00082608B
:100DB0008093B0008091B10081608093B100F80110
:100DC0008491E82FF0E0EE0FFF1FEC55FF4F859167
:100DD000949190937F0180937E01F7018491809399
:100DE0007D0180CF85B5887F836085BD89EF87BD14
:100DF00080928A0190928B01A0928C01B0928D0119
:100E000080916E00826080936E001AC0C13009F03C
:100E100052C080918100887F8160809381003092F0
:100E20008900209288008092860190928701A0928A
:100E30008801B092890180916F00826080936F0079
:100E400061E08DE00E940C0160E080E00E94A2035E
:100E50008EE391E00E94520261E080E00E94A203D2
:100E60008FE491E00E94520261E087E00E94A203B9
:100E700080918E0190918F010E94600480918E017B
:100E800090918F01843691056CF561E089E00E94B4
:100E9000A20387E591E00E94520264EF71E080E0D6
:100EA00090E00E94CB0180E090E0892B09F4EBCE2A
:100EB0000E940000E7CEC23021F0C111C1CF8FE700
:100EC00096CF8FE78093B300809282019092830146
:100ED000A0928401B092850180917000826080931D
:100EE0007000AECF61E08AE0D2CF88E00E940C01B2
:100EF0008AE00E943E0160E080E00E94A2038AE551
:100F000091E00E94520261E080E00E94A2038BE621
:100F100091E00E94520261E087E00E94A20380916A
:100F20008E0190918F010E94600480918E019091BA
:100F30008F019C012A5031092A35310508F4A5CFCB
:100F40000A9784F661E088E0A2CFEFE9F1E013822E
:100F5000128287E191E0918380838CE084838FEF1C
:100F600085838BE0868386E0878385E0808784E0C5
:100F7000818789E0828713861486158616861786F0
:100F800081E00E94B903E2E9F1E08FE091E0918312
:100F90008083158216821782108680E090E0A0E898
:100FA000BFE381879287A387B487089597FB072EB5
:100FB00016F4009407D077FD09D00E942B0807FC97
:100FC00005D03EF4909581959F4F08957095619559
:100FD0007F4F0895A1E21A2EAA1BBB1BFD010DC075
:100FE000AA1FBB1FEE1FFF1FA217B307E407F507D9
:100FF00020F0A21BB30BE40BF50B661F771F881FB5
:10100000991F1A9469F760957095809590959B014A
:10101000AC01BD01CF010895052E97FB1EF400948D
:101020000E94230857FD07D00E94EA0707FC03D05F
:101030004EF40C94230850954095309521953F4FE0
:101040004F4F5F4F089590958095709561957F4FB4
:101050008F4F9F4F0895AA1BBB1B51E107C0AA1FCA
:10106000BB1FA617B70710F0A61BB70B881F991F49
:101070005A95A9F780959095BC01CD010895EE0F82
:10108000FF1F0590F491E02D09940F931F93CF93C8
:10109000DF938230910510F482E090E0E091B90195
:1010A000F091BA0130E020E0B0E0A0E0309799F490
:1010B0002115310509F44AC0281B390B24303105AC
:1010C000D8F58A819B816115710589F1FB019383B4
:1010D0008283FE0111C04081518102811381481732
:1010E0005907E0F04817590799F4109761F01296E4
:1010F0000C93129713961C933296CF01DF91CF91E8
:101100001F910F9108950093B9011093BA01F4CF84
:101110002115310551F04217530738F0A901DB01C1
:101120009A01BD01DF01F801C1CFEF01F9CF909322
:10113000BA018093B901CDCFFE01E20FF31F819375
:1011400091932250310939832883D7CF2091B70159
:101150003091B801232B41F420910701309108010F
:101160003093B8012093B701209105013091060119
:101170002115310541F42DB73EB740910901509139
:101180000A01241B350BE091B701F091B801E21779
:10119000F307A0F42E1B3F0B2817390778F0AC019A
:1011A0004E5F5F4F2417350748F04E0F5F1F509377
:1011B000B8014093B701819391939FCFF0E0E0E0B5
:1011C0009CCFCF93DF930097E9F0FC013297138215
:1011D0001282A091B901B091BA01ED0130E020E096
:1011E0001097A1F420813181820F931F2091B701C4
:1011F0003091B8012817390709F061C0F093B801A0
:10120000E093B701DF91CF910895EA01CE17DF0790
:10121000E8F54A815B819E0141155105B1F7E9016D
:10122000FB83EA8349915991C40FD51FEC17FD0741
:1012300061F4808191810296840F951FE901998361
:101240008883828193819B838A83F0E0E0E0129619
:101250008D919C9113970097B9F52D913C91119721
:10126000CD010296820F931F2091B7013091B801F2
:101270002817390739F6309751F51092BA011092B4
:10128000B901B093B801A093B701BCCFD383C28397
:1012900040815181840F951FC817D90761F44E5FB3
:1012A0005F4F88819981480F591F518340838A81FC
:1012B0009B81938382832115310509F0B0CFF09390
:1012C000BA01E093B9019ECFFD01DC01C0CF1382CA
:1012D0001282D7CFF894FFCFFE01FE01FF0000BBC2
:1012E00001800000000000FF018904000000005A96
:1012F000048D00010200024465746563746F7220FE
:101300006465004761730043616C6962726174696E
:101310006E672E2E2E002020474153204445544511
:10132000435445442020004C4556454C3A20002566
:101330002000474153204E4F5420444554454354C8
:0C1340004544004E4956454C3A20000040
:107E0000112484B714BE81FFF0D085E080938100F7
:107E100082E08093C00088E18093C10086E0809377
:107E2000C20080E18093C4008EE0C9D0259A86E02C
:107E300020E33CEF91E0309385002093840096BBD3
:107E4000B09BFECF1D9AA8958150A9F7CC24DD24C4
:107E500088248394B5E0AB2EA1E19A2EF3E0BF2EE7
:107E6000A2D0813461F49FD0082FAFD0023811F036
:107E7000013811F484E001C083E08DD089C08234E0
:107E800011F484E103C0853419F485E0A6D080C0E4
:107E9000853579F488D0E82EFF2485D0082F10E0AE
:107EA000102F00270E291F29000F111F8ED06801E7
:107EB0006FC0863521F484E090D080E0DECF843638
:107EC00009F040C070D06FD0082F6DD080E0C81688
:107ED00080E7D80618F4F601B7BEE895C0E0D1E017
:107EE00062D089930C17E1F7F0E0CF16F0E7DF06D8
:107EF00018F0F601B7BEE89568D007B600FCFDCFD4
:107F0000A601A0E0B1E02C9130E011968C91119780
:107F100090E0982F8827822B932B1296FA010C0160
:107F200087BEE89511244E5F5F4FF1E0A038BF0790
:107F300051F7F601A7BEE89507B600FCFDCF97BE46
:107F4000E89526C08437B1F42ED02DD0F82E2BD052
:107F50003CD0F601EF2C8F010F5F1F4F84911BD097
:107F6000EA94F801C1F70894C11CD11CFA94CF0C13
:107F7000D11C0EC0853739F428D08EE10CD085E9AC
:107F80000AD08FE07ACF813511F488E018D01DD067
:107F900080E101D065CF982F8091C00085FFFCCF94
:107FA0009093C60008958091C00087FFFCCF809118
:107FB000C00084FD01C0A8958091C6000895E0E648
:107FC000F0E098E1908380830895EDDF803219F02E
:107FD00088E0F5DFFFCF84E1DECF1F93182FE3DFCA
:107FE0001150E9F7F2DF1F91089580E0E8DFEE27F6
:047FF000FF270994CA
:027FFE00040479
:00000001FF
