:020000040000FA
:100000000C9462000C948A000C948A000C948A0070
:100010000C948A000C948A000C948A000C948A0038
:100020000C948A000C948A000C948A000C9442026E
:100030000C948A000C948A000C948A000C948A0018
:100040000C94F8010C948A000C948A000C948A0099
:100050000C948A000C948A000C948A000C948A00F8
:100060000C948A000C948A000000000024002700F1
:100070002A0000000000250028002B0000000000DE
:1000800023002600290004040404040404040202DA
:100090000202020203030303030301020408102007
:1000A0004080010204081020010204081020000012
:1000B0000008000201000003040700000000000027
:1000C0000000870411241FBECFEFD8E0DEBFCDBFF4
:1000D00011E0A0E0B1E0E0E6FCE002C005900D9286
:1000E000A63DB107D9F721E0A6EDB1E001C01D9210
:1000F000AC3FB207E1F710E0C2E6D0E004C02197C0
:10010000FE010E940305C136D107C9F70E94B5025E
:100110000C942E060C940000833081F028F481307A
:1001200099F08230A9F008958730A9F08830C9F09D
:100130008430B1F4809180008F7D03C08091800075
:100140008F7780938000089584B58F7784BD08955C
:1001500084B58F7DFBCF8091B0008F778093B00006
:1001600008958091B0008F7DF9CFCF93DF93282F32
:1001700030E0F901E255FF4F8491F901E656FF4F57
:10018000D491F901EA57FF4FC491CC23A1F081111A
:100190000E948C00EC2FF0E0EE0FFF1FE458FF4FA1
:1001A000A591B491EC91ED2381E090E009F480E019
:1001B000DF91CF91089580E090E0FACF1F93CF9325
:1001C000DF93282F30E0F901E255FF4F8491F901C8
:1001D000E656FF4FD491F901EA57FF4FC491CC2363
:1001E000A9F0162F81110E948C00EC2FF0E0EE0F89
:1001F000FF1FEE58FF4FA591B4918FB7F894EC9183
:10020000111108C0D095DE23DC938FBFDF91CF9111
:100210001F910895DE2BF8CFCF93DF9390E0FC0180
:10022000E656FF4F24918A579F4FFC018491882303
:10023000D1F090E0880F991FFC01E859FF4FA5917C
:10024000B491FC01EE58FF4FC591D49161110EC0DD
:100250009FB7F8948C91E22FE0958E238C932881A0
:10026000E223E8839FBFDF91CF9108958FB7F89481
:10027000EC91E22BEC938FBFF6CF3FB7F8948091CF
:10028000DF019091E001A091E101B091E20126B57A
:10029000A89B05C02F3F19F00196A11DB11D3FBFBE
:1002A000BA2FA92F982F8827BC01CD01620F711D8D
:1002B000811D911D42E0660F771F881F991F4A9587
:1002C000D1F708950C943D0108958627082E829554
:1002D000807F8025092E982F82958F70082686951D
:1002E00098278927880F880F880F80250895FF9207
:1002F0000F931F93CF93DF93F82E062FC7E0D0E024
:1003000010E061E0802F0E94DE008F2D0E94B5007A
:100310000C2E01C0880F0A94EAF7182B60E0802F9A
:100320000E94DE00219768F7812FDF91CF911F9106
:100330000F91FF900895EF92FF920F931F93CF9329
:10034000DF938091EE010E94B500892B19F00E9485
:100350006201F7CFDFB7F8946091ED018091EE0173
:100360000E947701082F6091ED018091EE010E94BB
:100370007701C82F6091ED018091EE010E94770115
:10038000182FF12CE12C8091EF018E151F0479F0CC
:1003900070F061E08091ED010E94DE0060E08091EC
:1003A000ED010E94DE008FEFE81AF80AECCFDFBF04
:1003B0006C2F70E090E080E0982F872F762F6627D3
:1003C000802B612B000F000B10E030E020E0302F7D
:1003D000222711270027602B712B822B932BDF9173
:1003E000CF911F910F91FF90EF9008950C94A50568
:1003F0001F920F920FB60F9211242F933F938F935A
:100400009F93AF93BF938091DB019091DC01A0910A
:10041000DD01B091DE013091DA0123E0230F2D37A9
:1004200058F50196A11DB11D2093DA018093DB01DF
:100430009093DC01A093DD01B093DE018091DF0198
:100440009091E001A091E101B091E2010196A11D1E
:10045000B11D8093DF019093E001A093E101B0937F
:10046000E201BF91AF919F918F913F912F910F909A
:100470000FBE0F901F90189526E8230F0296A11D1E
:10048000B11DD2CF1F920F920FB60F9211241F935E
:100490002F933F934F935F936F937F938F939F938C
:1004A000AF93BF93CF93DF93EF93FF938091E801D6
:1004B000882321F18091E40191E0980F9093E40169
:1004C00081111CC0C091E601109100018091E701EB
:1004D000C81770F16091E3018AE00E94DE0060E0DD
:1004E000812F0E94DE001092E8018091D801909146
:1004F000D90101969093D9018093D8018091E401AC
:10050000883010F01092E401FF91EF91DF91CF91CC
:10051000BF91AF919F918F917F916F915F914F911B
:100520003F912F911F910F900FBE0F901F90189524
:10053000EC2FF0E0EF5FFE4F60812091E501D1E00C
:10054000D20FD093E50181E090E001C0880F2A9599
:10055000EAF76823812F0E94DE00D630A8F21092BD
:10056000E501CF5FC093E601C9CFCF93DF93CDB74D
:10057000DEB72F970FB6F894DEBF0FBECDBF7894CD
:1005800084B5826084BD84B5816084BD85B5826098
:1005900085BD85B5816085BD80916E008160809349
:1005A0006E001092810080918100826080938100B2
:1005B00080918100816080938100809180008160C2
:1005C000809380008091B10084608093B10080911D
:1005D000B00081608093B00080917A008460809345
:1005E0007A0080917A00826080937A0080917A000C
:1005F000816080937A0080917A00806880937A008D
:100600001092C10081E08093E3018CE080930001AF
:100610008EE0EFEAF1E0DE01119601900D928A95ED
:10062000E1F77E0123E0E20EF11C11E0812CE4E20F
:100630009E2EE4EFAE2EB12C412CFDE75F2E612CF7
:10064000712CD7012D913D917D0150E040E0C50115
:10065000B4010E94AE04CA01B901A30192010E9433
:10066000AE04223031054105510508F027C11F5F56
:10067000173039F780E18093ED018FE08093EE0130
:1006800061E080E10E940C0160E08091EE010E9437
:100690000C0181E08093EF011AE0C12CD12C76018E
:1006A0000E949B01C60ED71EE81EF91E0E94620121
:1006B0001150B1F7C701B6012AE030E040E050E048
:1006C0000E94D004CA01B90128E539E340E050E0B6
:1006D0000E94AE042D5031093093EA012093E901C4
:1006E00068E5462E69E3562E612C712C70E0272EAA
:1006F00070E0372E1AE0C12CD12C76010E949B01AC
:10070000C60ED71EE81EF91E0E9462011150B1F7F5
:10071000C701B6012AE030E040E050E00E94D0047A
:10072000CA01B901A30192010E94AE048091E901BE
:100730009091EA01281B390BB4E6B29FC001B39F28
:10074000900D11246DE070E00E949A045B01FB01A2
:1007500001900020E9F731978F01061B170B0F87D7
:100760000E3408F0A0C08091E8018111FCCF33E085
:10077000F32EF00E6F2D8FEF9FEF0E946501EF2D8E
:10078000F0E044E0F595E7954A95E1F7EB53FE4F2D
:10079000208120930901EF2DEF70F0E0EB53FE4F25
:1007A000208120930A0151E0C52E51E0D52EF12C75
:1007B000E12CF2E0CF0ED11C2F85E21608F54501A1
:1007C0008E0C9F1CD4016C910E946501D401EC91A8
:1007D000F0E024E0F595E7952A95E1F7EB53FE4F1D
:1007E0002081F6012087EC91EF70F0E0EB53FE4F93
:1007F0002081D60119962C93BFEFEB1AFB0AD9CFB3
:100800009801332741E0400F440F80959095D9011E
:10081000AA0FBB1FA55FBE4FFC0164E0F695E795EC
:100820006A95E1F7EF70FF27EB53FE4F50815C9321
:10083000220F331FF901E45FFE4FDC01AF70BB27CD
:10084000AB53BE4F2C9120830E5F000FE02FF0E0E2
:10085000E75FFE4FDC01AB2FBB27A295AF70AB5318
:10086000BE4F2C912083A3E0A40FB0E0A75FBE4F42
:10087000E92FFF27EF70FF27EB53FE4F80818C930A
:10088000445F4093E7011092E6011092E501109257
:10089000E4016091E301E1E06E278AE00E94DE005E
:1008A000F1E0F093E8018091E8018111FCCF21147F
:1008B000310409F41FCF0E9400001CCF163009F448
:1008C000D9CE1092800088E08093810080918100D1
:1008D000182B109381003093890020938800809119
:1008E0006F00826080936F0061E0809100010E9440
:1008F0000C0160E08BE00E940C0161E08AE00E9444
:100900000C016091E3018AE00E94DE00B3CEEBEEC1
:10091000F1E081EC91E09183808315821682178249
:10092000108680E090E0A0E8BFE381879287A387EC
:10093000B487089597FB072E16F4009407D077FD2F
:1009400009D00E94EF0407FC05D03EF490958195F4
:100950009F4F0895709561957F4F0895A1E21A2EDB
:10096000AA1BBB1BFD010DC0AA1FBB1FEE1FFF1F53
:10097000A217B307E407F50720F0A21BB30BE40BA3
:10098000F50B661F771F881F991F1A9469F76095EA
:100990007095809590959B01AC01BD01CF010895A4
:1009A000052E97FB1EF400940E94E70457FD07D024
:1009B0000E94AE0407FC03D04EF40C94E70450955B
:1009C0004095309521953F4F4F4F5F4F089590953B
:1009D0008095709561957F4F8F4F9F4F0895AA1B0B
:1009E000BB1B51E107C0AA1FBB1FA617B70710F01A
:1009F000A61BB70B881F991F5A95A9F7809590954C
:100A0000BC01CD010895EE0FFF1F0590F491E02D7C
:100A100009940F931F93CF93DF938230910510F4C5
:100A200082E090E0E091FA01F091FB0130E020E0FB
:100A3000B0E0A0E0309799F42115310509F44AC0DF
:100A4000281B390B24303105D8F58A819B8161152B
:100A5000710589F1FB0193838283FE0111C04081FE
:100A600051810281138148175907E0F0481759074F
:100A700099F4109761F012960C93129713961C93A9
:100A80003296CF01DF91CF911F910F91089500937E
:100A9000FA011093FB01F4CF2115310551F04217F3
:100AA000530738F0A901DB019A01BD01DF01F8010C
:100AB000C1CFEF01F9CF9093FB018093FA01CDCF25
:100AC000FE01E20FF31F8193919322503109398384
:100AD0002883D7CF2091F8013091F901232B41F4DD
:100AE0002091AB013091AC013093F9012093F801D2
:100AF0002091A9013091AA012115310541F42DB7AA
:100B00003EB74091AD015091AE01241B350BE091F1
:100B1000F801F091F901E217F307A0F42E1B3F0B47
:100B20002817390778F0AC014E5F5F4F241735075F
:100B300048F04E0F5F1F5093F9014093F8018193E5
:100B400091939FCFF0E0E0E09CCFCF93DF930097AD
:100B5000E9F0FC01329713821282A091FA01B09160
:100B6000FB01ED0130E020E01097A1F420813181FC
:100B7000820F931F2091F8013091F901281739074E
:100B800009F061C0F093F901E093F801DF91CF9192
:100B90000895EA01CE17DF07E8F54A815B819E01DF
:100BA00041155105B1F7E901FB83EA834991599158
:100BB000C40FD51FEC17FD0761F480819181029667
:100BC000840F951FE90199838883828193819B8398
:100BD0008A83F0E0E0E012968D919C911397009744
:100BE000B9F52D913C911197CD010296820F931F7B
:100BF0002091F8013091F9012817390739F630971B
:100C000051F51092FB011092FA01B093F901A093F3
:100C1000F801BCCFD383C28340815181840F951FDB
:100C2000C817D90761F44E5F5F4F88819981480FDB
:100C3000591F518340838A819B819383828321152D
:100C4000310509F0B0CFF093FB01E093FA019ECF9C
:100C5000FD01DC01C0CF13821282D7CFF894FFCF01
:100C60000C2A2A2A2A2A2A382C0000000000000018
:100C70000000000000000000000000000000000074
:100C80000000000000000000000000000000000064
:100C90000000000000000000000000000000000054
:100CA0000000000000000000000000000000000044
:100CB0000000000000000000000000000000000034
:100CC0000000000000000000000000000000000024
:100CD0000000000000000000000000000000000014
:100CE0000000000000000000000000000000000004
:100CF00000000000000000000000000000000000F4
:100D00000000000000000000000000FC0180000066
:100D10000001000800400000010004050D00000073
:100D2000006401F6010D0E131516191A1C23252651
:060D3000292A2C323400D8
:107E0000112484B714BE81FFF0D085E080938100F7
:107E100082E08093C00088E18093C10086E0809377
:107E2000C20080E18093C4008EE0C9D0259A86E02C
:107E300020E33CEF91E0309385002093840096BBD3
:107E4000B09BFECF1D9AA8958150A9F7CC24DD24C4
:107E500088248394B5E0AB2EA1E19A2EF3E0BF2EE7
:107E6000A2D0813461F49FD0082FAFD0023811F036
:107E7000013811F484E001C083E08DD089C08234E0
:107E800011F484E103C0853419F485E0A6D080C0E4
:107E9000853579F488D0E82EFF2485D0082F10E0AE
:107EA000102F00270E291F29000F111F8ED06801E7
:107EB0006FC0863521F484E090D080E0DECF843638
:107EC00009F040C070D06FD0082F6DD080E0C81688
:107ED00080E7D80618F4F601B7BEE895C0E0D1E017
:107EE00062D089930C17E1F7F0E0CF16F0E7DF06D8
:107EF00018F0F601B7BEE89568D007B600FCFDCFD4
:107F0000A601A0E0B1E02C9130E011968C91119780
:107F100090E0982F8827822B932B1296FA010C0160
:107F200087BEE89511244E5F5F4FF1E0A038BF0790
:107F300051F7F601A7BEE89507B600FCFDCF97BE46
:107F4000E89526C08437B1F42ED02DD0F82E2BD052
:107F50003CD0F601EF2C8F010F5F1F4F84911BD097
:107F6000EA94F801C1F70894C11CD11CFA94CF0C13
:107F7000D11C0EC0853739F428D08EE10CD085E9AC
:107F80000AD08FE07ACF813511F488E018D01DD067
:107F900080E101D065CF982F8091C00085FFFCCF94
:107FA0009093C60008958091C00087FFFCCF809118
:107FB000C00084FD01C0A8958091C6000895E0E648
:107FC000F0E098E1908380830895EDDF803219F02E
:107FD00088E0F5DFFFCF84E1DECF1F93182FE3DFCA
:107FE0001150E9F7F2DF1F91089580E0E8DFEE27F6
:047FF000FF270994CA
:027FFE00040479
:00000001FF
