:100000000C9462000C9437020C9410020C947F0044
:100010000C947F000C947F000C947F000C946A0178
:100020000C947F000C947F000C947F000C947F0054
:100030000C947F000C947F000C947F000C947F0044
:100040000C94C6010C947F000C947F000C947F00EC
:100050000C947F000C947F000C947F000C947F0024
:100060000C947F000C947F00000000002400270007
:100070002A000000000023002600290000000008DC
:10008000000201000003040700000000000000005F
:10009000010204081020408001020408102001021F
:1000A0000408102000000000250028002B00040494
:1000B0000404040404040202020202020303030310
:1000C0000303020011241FBECFEFD8E0DEBFCDBF77
:1000D00011E0A0E0B1E0E8E0F8E002C005900D9288
:1000E000A630B107D9F721E0A6E0B1E001C01D922A
:1000F000A032B207E1F70E945E020C9402040C9455
:100100000000833081F028F4813099F08230A9F02A
:1001100008958730A9F08830C9F08430B1F4809117
:1001200080008F7D03C0809180008F778093800056
:10013000089584B58F7784BD089584B58F7DFBCFF6
:100140008091B0008F778093B00008958091B000C7
:100150008F7DF9CF1F93CF93DF93282F30E0F901E4
:10016000E458FF4F8491F901E057FF4FD491F90112
:10017000E255FF4FC491CC23A9F0162F81110E94A4
:100180008100EC2FF0E0EE0FFF1FEC55FF4FA59123
:10019000B4918FB7F894EC91111108C0D095DE237B
:1001A000DC938FBFDF91CF911F910895DE2BF8CFA5
:1001B00060E08DE00C94AA009091040189130BC0BB
:1001C000E2ECF0E0E4919FEF90930401E13049F01C
:1001D00028F0E23061F060E00C94AA0010926E000A
:1001E000FACF90916F009D7F90936F00F4CF909124
:1001F00070009D7F9093700091E09093B00090917B
:10020000B100987F94609093B1001092B300E3CF57
:10021000CF93DF9390E0FC01E057FF4F249182558C
:100220009F4FFC0184918823C9F090E0880F991FAB
:10023000FC01E859FF4FA591B491FC01EC55FF4F2B
:10024000C591D49161110DC09FB7F8948C91209500
:1002500082238C938881282328839FBFDF91CF91AD
:100260000895623051F49FB7F8943C91822F8095A5
:1002700083238C93E8812E2BEFCF8FB7F894EC91EA
:100280002E2B2C938FBFEACF3FB7F89480910B01B0
:1002900090910C01A0910D01B0910E0126B5A89B83
:1002A00005C02F3F19F00196A11DB11D3FBFBA2F08
:1002B000A92F982F8827BC01CD01620F711D811DC8
:1002C000911D42E0660F771F881F991F4A95D1F74D
:1002D000089508951F920F920FB60F9211242F9335
:1002E0003F934F935F936F937F938F939F93AF93BE
:1002F000BF93EF93FF938091140190911501A0910A
:100300001601B0911701892B8A2B8B2BD1F190917B
:100310000F01E0911001F091110180818927808304
:100320008091140190911501A0911601B0911701CF
:10033000181619061A061B069CF480911401909158
:100340001501A0911601B09117010197A109B109FA
:100350008093140190931501A0931601B093170197
:10036000FF91EF91BF91AF919F918F917F916F918D
:100370005F914F913F912F910F900FBE0F901F9063
:100380001895809104010E94DC00EACF1F920F9221
:100390000FB60F9211242F933F938F939F93AF9398
:1003A000BF938091070190910801A0910901B0913C
:1003B0000A013091060123E0230F2D3758F50196ED
:1003C000A11DB11D209306018093070190930801A0
:1003D000A0930901B0930A0180910B0190910C0147
:1003E000A0910D01B0910E010196A11DB11D809348
:1003F0000B0190930C01A0930D01B0930E01BF91DE
:10040000AF919F918F913F912F910F900FBE0F90C1
:100410001F90189526E8230F0296A11DB11DD2CF7B
:100420001F920F920FB60F9211242F933F934F9369
:100430005F936F937F938F939F93AF93BF93EF934C
:10044000FF93E0910201F09103010995FF91EF9173
:10045000BF91AF919F918F917F916F915F914F91DC
:100460003F912F910F900FBE0F901F9018951F92E4
:100470000F920FB60F9211242F933F934F935F93D8
:100480006F937F938F939F93AF93BF93EF93FF935C
:10049000E0910001F09101010995FF91EF91BF9169
:1004A000AF919F918F917F916F915F914F913F910C
:1004B0002F910F900FBE0F901F901895789484B5D0
:1004C000826084BD84B5816084BD85B5826085BD50
:1004D00085B5816085BD80916E00816080936E00DE
:1004E00010928100809181008260809381008091D0
:1004F0008100816080938100809180008160809381
:1005000080008091B10084608093B1008091B00040
:1005100081608093B00080917A00846080937A003B
:1005200080917A00826080937A0080917A00816065
:1005300080937A0080917A00806880937A0010928C
:10054000C10061E086E00E94080161E087E00E944E
:10055000080161E08AE00E94080160E082E00E94F8
:10056000080161E08DE00E94080162E083E00E94E2
:10057000080188ED90E0909303018093020180913F
:100580006900837F886080936900E99A52EC252E88
:1005900050E0352E08EB10E0CC24CA94DC2C760118
:1005A000EEE7F0E08491E2E9F0E0B490E0EBF0E017
:1005B000A490AA2009F41AC181110E948100EA2D99
:1005C000F0E0EE0FFF1FEE58FF4FA591B4918C9114
:1005D000B82209F40BC161E086E00E94AA0060E045
:1005E00087E00E94AA00809104018A30B1F4F101F1
:1005F000C491C7FDB3C061E08AE00E940801CC232A
:1006000009F47CC0C23009F08DC08091B100887FB0
:1006100084608093B10089EFD9C08F3F09F09EC0FC
:100620008AE080930401F101C491CF3F09F496C0A0
:10063000C13021F150F0C23009F43EC0C7FD8EC078
:1006400061E08AE00E940801DDCF14BC15BC84B5CE
:10065000826084BD85B5816085BDF8018491E82FF5
:10066000F0E0EE0FFF1FEC55FF4F85919491EAE902
:10067000F0E0849180931301C0E0BDCF1092800020
:100680001092810080918100886080938100809128
:100690008100816080938100F8018491E82FF0E06F
:1006A000EE0FFF1FEC55FF4F85919491EAE9F0E0C2
:1006B0008491809312019FCF1092B0001092B100EC
:1006C0008091B00082608093B0008091B100816021
:1006D0008093B100F8018491E82FF0E0EE0FFF1F46
:1006E000EC55FF4F859194919093110180931001E7
:1006F000EAE9F0E0849180930F017DCF85B5887F92
:10070000836085BD89EF87BDC0921C01D0921D0119
:10071000E0921E01F0921F0180916E008260809332
:100720006E001CC0C13009F04AC080918100887FF2
:100730008160809381008FE79EE39093890080938E
:100740008800C0921801D0921901E0921A01F0922B
:100750001B0180916F00826080936F0061E08DE0EB
:100760000E94AA000E9444012B013C0184EF882EC4
:1007700099249394A12CB12C0E9444016419750909
:1007800086099709683E734081059105A8F391E0B9
:10079000891A9108A108B108E8EE4E0EE3E05E1E4A
:1007A000611C711C81149104A104B10429F780E03B
:1007B00090E0892B09F4F4CE0E940000F1CEC23003
:1007C00021F0C111CBCF8FE79ECF8FE78093B3008D
:1007D000C0921401D0921501E0921601F092170117
:1007E00080917000826080937000B8CF61E087E0F4
:1007F0000E94AA0060E086E00E94AA008AE00E94AF
:08080000DC00B0CFF894FFCF3B
:0608080069016901FF0017
:00000001FF
